:020000040800F2
:100000000050002031090008AD080008B3080008BE
:10001000B9080008BF080008C50800080000000073
:10002000000000000000000000000000CB080008F5
:10003000D708000800000000E3080008EF080008E7
:100040007909000879090008790900087909000888
:100050007909000879090008790900087909000878
:100060007909000879090008790900087909000868
:100070007909000879090008790900087909000858
:100080007909000879090008790900087909000848
:100090007909000879090008790900087909000838
:1000A0007909000879090008790900087909000828
:1000B000FD080008110900087909000879090008FD
:1000C0007909000879090008790900087909000808
:1000D00079090008790900087909000879090008F8
:1000E0007909000879090008790900080000000072
:1000F0000000000000000000000000000000000000
:0C01000000000000000000005FF808F1A3
:10010C0010B5054C237833B9044B13B10448AFF345
:10011C0000800123237010BD0C00002000000000A3
:10012C00C028000808B5034B1BB103490348AFF3C3
:10013C00008008BD0000000010000020C02800084E
:10014C0080B582B000AF00237B60ADE05B4A7B687A
:10015C00134419785A4A7B6813440A461A70594A50
:10016C007B6813441978554A7B6813440A461A7005
:10017C007B68032B3AD801A252F823F099010008AE
:10018C00B1010008C9010008E101000802214E4834
:10019C0000F0E2FE034619464A4A7B6813440A46BD
:1001AC001A7024E01021484800F0D6FE0346194688
:1001BC00444A7B6813440A461A7018E001214348EC
:1001CC0000F0CAFE034619463E4A7B6813440A46B1
:1001DC001A700CE001213C4800F0BEFE03461946A3
:1001EC00384A7B6813440A461A7000E000BF354A4F
:1001FC007B6813441A7831497B680B441B789A420C
:10020C0023D1304A7B6813441A782D497B680B4400
:10021C001B789A4219D12E4A7B6813441B78012B08
:10022C000AD1284A7B6813441B78002B04D1294A35
:10023C007B68012142F82310224A7B681344197809
:10024C00234A7B6813440A461A70214A7B6813447C
:10025C001B78002B16D1204A7B6832F81330632BA5
:10026C000AD81D4A7B6832F81330013399B21A4A06
:10027C007B6822F8131014E0184A7B68134401229F
:10028C001A700EE0134A7B68002142F82310124AC0
:10029C007B68002122F81310104A7B68134400225B
:1002AC001A707B6801337B607B68022B7FF74EAF43
:1002BC0000BF00BF0837BD4680BD00BF3000002026
:1002CC00340000202C00002000080140000C0140EC
:1002DC00280000208C0000203C000020380000206A
:1002EC0080B500AF00F044FB00F014F800F03AF9D0
:1002FC0000F04CF800F096F800F00AF9034801F011
:10030C00B9FA0021024801F05FFBFEE7E000002093
:10031C009800002080B590B000AF07F11803282298
:10032C000021184602F0BEFA3B1D00221A605A60EA
:10033C009A60DA601A610223BB610123BB6210234D
:10034C00FB6200237B6307F11803184600F034FEB0
:10035C000346002B01D000F07FF90F237B600023B4
:10036C00BB600023FB6000233B6100237B613B1DD2
:10037C000021184601F0A0F80346002B01D000F034
:10038C006BF900BF4037BD4680BD000080B586B01C
:10039C0000AF07F1080300221A605A609A60DA6015
:1003AC003B4600221A605A601D4B4FF080421A6087
:1003BC001B4B3F225A601A4B00229A60184B0922A1
:1003CC00DA60174B00221A61154B00229A6114480F
:1003DC0001F000FA0346002B01D000F03DF94FF478
:1003EC008053BB6007F1080319460D4801F058FD16
:1003FC000346002B01D000F02FF900233B600023B3
:10040C007B603B461946064802F0DAF80346002B9F
:10041C0001D000F021F900BF1837BD4680BD00BFE8
:10042C00E000002080B58EB000AF07F12803002259
:10043C001A605A609A60DA6007F1200300221A6091
:10044C005A603B1D00221A605A609A60DA601A6189
:10045C005A619A612C4B2D4A1A602B4B3F225A60E1
:10046C00294B00229A60284B40F2E732DA60264B87
:10047C0000221A61244B00229A61234801F0AAF948
:10048C000346002B01D000F0E7F84FF48053BB6219
:10049C0007F1280319461C4801F002FD0346002B06
:1004AC0001D000F0D9F8184801F036FA0346002BB9
:1004BC0001D000F0D1F800233B6200237B6207F1EE
:1004CC0020031946104802F07BF80346002B01D09C
:1004DC0000F0C2F860237B600023BB600023FB604C
:1004EC0000237B613B1D00221946074801F016FCD6
:1004FC000346002B01D000F0AFF8034800F054F98C
:10050C0000BF3837BD4680BD980000200004004075
:10051C0080B500AF114B124A1A60104B4FF4E13208
:10052C005A600E4B00229A600C4B0022DA600B4B87
:10053C0000221A61094B0C225A61084B00229A6165
:10054C00064B0022DA61054802F0AAF80346002B9C
:10055C0001D000F081F800BF80BD00BF2801002051
:10056C000044004080B586B000AF07F108030022BC
:10057C001A605A609A60DA602E4B9B692D4A43F0E0
:10058C00040393612B4B9B6903F004037B607B6832
:10059C00284B9B69274A43F008039361254B9B69C1
:1005AC0003F008033B603B6800224FF4876122484C
:1005BC0000F0E9FC00224FF4A061204800F0E3FCBD
:1005CC001323BB600023FB6000233B6107F108038E
:1005DC0019461A4800F03CFB0123BB600023FB606A
:1005EC0000233B6107F108031946134800F030FB68
:1005FC004FF48763BB600123FB6000233B61022344
:10060C007B6107F1080319460B4800F021FB4FF4FE
:10061C00A063BB600123FB6000233B6102237B6171
:10062C0007F108031946054800F012FB00BF183704
:10063C00BD4680BD00100240000C01400008014086
:10064C0080B582B000AF786000F00CF8FFF778FD51
:10065C0000BF0837BD4680BD80B400AF72B600BF86
:10066C00FEE7000080B483B000AF00237B601CE089
:10067C00124A7B6852F82330002B13DD0F4A7B683B
:10068C0052F823305A1E0D497B6841F823200B4A3F
:10069C007B6852F82330002B04DC094A7B6801216B
:1006AC0042F823107B6801337B607B68082BDFDD0D
:1006BC0000BF00BF0C37BD4680BC70474400002013
:1006CC006800002080B485B000AF154B9B69144ABC
:1006DC0043F001039361124B9B6903F00103BB6070
:1006EC00BB680F4BDB690E4A43F08053D3610C4B54
:1006FC00DB6903F080537B607B680A4B5B68FB60B3
:10070C00FB6823F0E063FB60FB6843F00073FB6065
:10071C00044AFB68536000BF1437BD4680BC704769
:10072C00001002400000014080B584B000AF78603A
:10073C007B681B68B3F1804F14D1194BDB69184AE5
:10074C0043F00103D361164BDB6903F00103FB603B
:10075C00FB68002200211C2000F043FA1C2000F052
:10076C005CFA18E07B681B680E4A934213D10C4B61
:10077C00DB690B4A43F00203D361094BDB6903F0DD
:10078C000203BB60BB68002200211D2000F029FA87
:10079C001D2000F042FA00BF1037BD4680BD00BFDF
:1007AC00001002400004004080B588B000AF7860B3
:1007BC0007F1100300221A605A609A60DA607B68B5
:1007CC001B680F4A934217D10E4B9B690D4A43F09D
:1007DC00040393610B4B9B6903F00403FB60FB6800
:1007EC0040233B6102237B610223FB6107F1100371
:1007FC001946054800F02CFA00BF2037BD4680BDD5
:10080C0000040040001002400008014080B588B090
:10081C0000AF786007F1100300221A605A609A60EA
:10082C00DA607B681B681B4A93422FD11A4BDB6939
:10083C00194A43F40033D361174BDB6903F40033DB
:10084C00FB60FB68144B9B69134A43F004039361F0
:10085C00114B9B6903F00403BB60BB6804233B6131
:10086C0002237B610323FB6107F1100319460B483C
:10087C0000F0EEF908233B6100237B610023BB6190
:10088C0007F110031946054800F0E2F900BF2037C4
:10089C00BD4680BD004400400010024000080140ED
:1008AC0080B400AFFEE780B400AFFEE780B400AFC9
:1008BC00FEE780B400AFFEE780B400AFFEE780B483
:1008CC0000AF00BFBD4680BC704780B400AF00BF16
:1008DC00BD4680BC704780B400AF00BFBD4680BC35
:1008EC00704780B500AF00F089F800BF80BD0000F4
:1008FC0080B500AF024801F009F900BF80BD00BF10
:10090C00E000002080B500AF024801F0FFF800BF06
:10091C0080BD00BF9800002080B400AF00BFBD4672
:10092C0080BC7047FFF7F8FF0B480C490C4A0023BA
:10093C0002E0D458C4500433C4188C42F9D3094A89
:10094C00094C002301E013600432A242FBD301F0F6
:10095C0085FFFFF7C5FC7047000000200C0000204D
:10096C000C2900080C00002074010020FEE7000098
:10097C0080B500AF084B1B68074A43F010031360A7
:10098C00032000F023F90F2000F008F8FFF79AFE7F
:10099C000023184680BD00BF0020024080B582B005
:1009AC0000AF7860124B1A68124B1B7819464FF443
:1009BC007A73B3FBF1F3B2FBF3F3184600F03BF997
:1009CC000346002B01D001230EE07B680F2B0AD8C5
:1009DC00002279684FF0FF3000F003F9064A7B687B
:1009EC001360002300E0012318460837BD4680BD84
:1009FC0000000020080000200400002080B400AF9C
:100A0C00054B1B781A46054B1B681344034A1360AD
:100A1C0000BFBD4680BC704708000020700100205C
:100A2C0080B400AF024B1B681846BD4680BC7047B3
:100A3C007001002080B485B000AF78607B6803F053
:100A4C000703FB600C4BDB68BB60BA684FF6FF0317
:100A5C001340BB60FB681A02BB68134343F0BF63CF
:100A6C0043F40033BB60044ABB68D36000BF143747
:100A7C00BD4680BC704700BF00ED00E080B400AF05
:100A8C00044BDB681B0A03F007031846BD4680BC09
:100A9C00704700BF00ED00E080B483B000AF0346A8
:100AAC00FB7197F90730002B0BDBFB7903F01F026E
:100ABC00064997F907305B09012000FA02F241F868
:100ACC00232000BF0C37BD4680BC704700E100E01E
:100ADC0080B483B000AF03463960FB7197F90730DF
:100AEC00002B0ADB3B68DAB20C4997F9073012018C
:100AFC00D2B20B4483F800230AE03B68DAB208490F
:100B0C00FB7903F00F03043B1201D2B20B441A76AB
:100B1C0000BF0C37BD4680BC704700BF00E100E051
:100B2C0000ED00E080B489B000AFF860B9607A6085
:100B3C00FB6803F00703FB61FB69C3F10703042B9C
:100B4C0028BF0423BB61FB690433062B02D9FB6964
:100B5C00033B00E000237B614FF0FF32BB6902FADC
:100B6C0003F3DA43BB681A407B699A404FF0FF31BC
:100B7C007B6901FA03F3D9437B680B401343184696
:100B8C002437BD4680BC704780B582B000AF78601A
:100B9C007B68013BB3F1807F01D301230FE00A4A4C
:100BAC007B68013B53600F214FF0FF30FFF790FF44
:100BBC00054B00229A60044B07221A60002318464A
:100BCC000837BD4680BD00BF10E000E080B582B0A4
:100BDC0000AF78607868FFF72DFF00BF0837BD467F
:100BEC0080BD80B586B000AF0346B9607A60FB73F8
:100BFC0000237B61FFF742FF78617A68B9687869F6
:100C0C00FFF790FF024697F90F3011461846FFF791
:100C1C005FFF00BF1837BD4680BD80B582B000AF06
:100C2C000346FB7197F907301846FFF735FF00BFF5
:100C3C000837BD4680BD80B582B000AF786078685B
:100C4C00FFF7A2FF034618460837BD4680BD0000DB
:100C5C0080B48BB000AF7860396000237B620023D6
:100C6C003B6269E101227B6A02FA03F3FB613B6898
:100C7C001B68FA691340BB61BA69FB699A4240F080
:100C8C0058813B685B689A4A93425ED0984A93427B
:100C9C0075D8984A934258D0964A93426FD8964A40
:100CAC00934252D0944A934269D8944A93424CD07E
:100CBC00924A934263D8924A934246D0904A9342C6
:100CCC005DD8122B2AD8122B59D801A252F823F036
:100CDC00570D0008310D0008430D0008850D000864
:100CEC008B0D00088B0D00088B0D00088B0D000878
:100CFC008B0D00088B0D00088B0D00088B0D000868
:100D0C008B0D00088B0D00088B0D00088B0D000857
:100D1C008B0D0008390D00084D0D0008794A9342DF
:100D2C0013D02CE03B68DB683B6229E03B68DB6856
:100D3C0004333B6224E03B68DB6808333B621FE012
:100D4C003B68DB680C333B621AE03B689B68002B0A
:100D5C0002D104233B6213E03B689B68012B05D155
:100D6C0008233B627B68FA691A6109E008233B623D
:100D7C007B68FA695A6103E000233B6200E000BF24
:100D8C00BB69FF2B01D87B6801E07B6804337B6176
:100D9C00BB69FF2B02D87B6A9B0002E07B6A083B95
:100DAC009B003B617B691A680F213B6901FA03F3D5
:100DBC00DB431A40396A3B6901FA03F31A437B6936
:100DCC001A603B685B6803F08053002B00F0B18025
:100DDC004D4B9B694C4A43F0010393614A4B9B6911
:100DEC0003F00103BB60BB68484A7B6A9B08023373
:100DFC0052F82330FB607B6A03F003039B000F2245
:100E0C0002FA03F3DB43FA681340FB607B68404A49
:100E1C00934213D07B683F4A93420DD07B683E4A85
:100E2C00934207D07B683D4A934201D1032306E0ED
:100E3C00042304E0022302E0012300E000237A6A89
:100E4C0002F0030292009340FA681343FB602F49AF
:100E5C007B6A9B080233FA6841F823203B685B6885
:100E6C0003F48013002B06D02D4B9A682C49BB69D8
:100E7C0013438B6006E02A4B9A68BB69DB43284915
:100E8C0013408B603B685B6803F40013002B06D0A7
:100E9C00234BDA682249BB691343CB6006E0204B35
:100EAC00DA68BB69DB431E491340CB603B685B6867
:100EBC0003F40033002B06D0194B5A681849BB6950
:100ECC0013434B6006E0164B5A68BB69DB4314496D
:100EDC0013404B603B685B6803F48033002B21D0DC
:100EEC000F4B1A680E49BB6913430B6021E000BF1E
:100EFC000000321000003110000022100000211000
:100F0C0000001210000011100010024000000140FF
:100F1C0000080140000C0140001001400014014089
:100F2C00000401400B4B1A68BB69DB4309491340B1
:100F3C000B607B6A01337B623B681A687B6A22FA1E
:100F4C0003F3002B7FF48EAE00BF00BF2C37BD46E1
:100F5C0080BC70470004014080B485B000AF78605D
:100F6C000B467B807B689A687B881340002B02D0F1
:100F7C000123FB7301E00023FB73FB7B1846143742
:100F8C00BD4680BC704780B483B000AF78600B4620
:100F9C007B8013467B707B78002B03D07A887B6830
:100FAC001A6103E07B881A047B681A6100BF0C3756
:100FBC00BD4680BC7047000080B586B000AF78603D
:100FCC007B68002B01D101236CE27B681B6803F06A
:100FDC000103002B00F08780924B5B6803F00C033D
:100FEC00042B0CD08F4B5B6803F00C03082B12D135
:100FFC008C4B5B6803F48033B3F5803F0BD1894B8A
:10100C001B6803F40033002B6CD07B685B68002BEF
:10101C0068D1012346E27B685B68B3F5803F06D15B
:10102C00804B1B687F4A43F4803313602EE07B684F
:10103C005B68002B0CD17B4B1B687A4A23F4803302
:10104C001360784B1B68774A23F4802313601DE0F0
:10105C007B685B68B3F5A02F0CD1724B1B68714A8F
:10106C0043F4802313606F4B1B686E4A43F4803348
:10107C0013600BE06B4B1B686A4A23F480331360DC
:10108C00684B1B68674A23F4802313607B685B689A
:10109C00002B13D0FFF7C4FC386108E0FFF7C0FC4D
:1010AC0002463B69D31A642B01D90323FAE15D4B49
:1010BC001B6803F40033002BF0D014E0FFF7B0FCF6
:1010CC00386108E0FFF7ACFC02463B69D31A642B8D
:1010DC0001D90323E6E1534B1B6803F40033002BC7
:1010EC00F0D100E000BF7B681B6803F00203002B0B
:1010FC0063D04C4B5B6803F00C03002B0BD0494BBB
:10110C005B6803F00C03082B1CD1464B5B6803F4A3
:10111C008033002B16D1434B1B6803F00203002BCA
:10112C0005D07B681B69012B01D00123BAE13D4B33
:10113C001B6823F0F8027B685B69DB0039491343B9
:10114C000B603AE07B681B69002B20D0364B0122E8
:10115C001A60FFF765FC386108E0FFF761FC024696
:10116C003B69D31A022B01D903239BE12D4B1B683E
:10117C0003F00203002BF0D02A4B1B6823F0F8027B
:10118C007B685B69DB00274913430B6015E0264B3A
:10119C0000221A60FFF744FC386108E0FFF740FCBE
:1011AC0002463B69D31A022B01D903237AE11D4B6A
:1011BC001B6803F00203002BF0D17B681B6803F063
:1011CC000803002B3AD07B689B69002B19D0174B76
:1011DC0001221A60FFF724FC386108E0FFF720FCBD
:1011EC0002463B69D31A022B01D903235AE10D4B5A
:1011FC005B6A03F00203002BF0D0012000F0CCFA64
:10120C001CE00A4B00221A60FFF70AFC38610FE061
:10121C00FFF706FC02463B69D31A022B08D90323BD
:10122C0040E100BF001002400000424280044242F4
:10123C009E4B5B6A03F00203002BE9D17B681B68B1
:10124C0003F00403002B00F0A6800023FB75974BE2
:10125C00DB6903F08053002B0DD1944BDB69934A6F
:10126C0043F08053D361914BDB6903F08053BB6037
:10127C00BB680123FB758E4B1B6803F48073002B3A
:10128C0018D18B4B1B688A4A43F480731360FFF7A9
:10129C00C7FB386108E0FFF7C3FB02463B69D31A72
:1012AC00642B01D90323FDE0814B1B6803F480738D
:1012BC00002BF0D07B68DB68012B06D17B4B1B6AC3
:1012CC007A4A43F0010313622DE07B68DB68002B44
:1012DC000CD1764B1B6A754A23F001031362734BD6
:1012EC001B6A724A23F0040313621CE07B68DB6800
:1012FC00052B0CD16D4B1B6A6C4A43F00403136233
:10130C006A4B1B6A694A43F0010313620BE0674B9B
:10131C001B6A664A23F001031362644B1B6A634A1F
:10132C0023F0040313627B68DB68002B15D0FFF7F6
:10133C0077FB38610AE0FFF773FB02463B69D31A6F
:10134C0041F28832934201D90323ABE0574B1B6A1D
:10135C0003F00203002BEED014E0FFF761FB3861C1
:10136C000AE0FFF75DFB02463B69D31A41F2883273
:10137C00934201D9032395E04C4B1B6A03F0020303
:10138C00002BEED1FB7D012B05D1484BDB69474A85
:10139C0023F08053D3617B68DB69002B00F08180E4
:1013AC00424B5B6803F00C03082B61D07B68DB6954
:1013BC00022B46D13F4B00221A60FFF731FB3861FC
:1013CC0008E0FFF72DFB02463B69D31A022B01D92B
:1013DC00032367E0354B1B6803F00073002BF0D13F
:1013EC007B681B6AB3F5803F08D1304B5B6823F4F4
:1013FC0000327B689B682D4913434B602B4B5B6819
:10140C0023F474127B68196A7B685B6A0B43274967
:10141C0013434B60274B01221A60FFF701FB386125
:10142C0008E0FFF7FDFA02463B69D31A022B01D9FB
:10143C00032337E01D4B1B6803F00073002BF0D027
:10144C002FE01C4B00221A60FFF7EAFA386108E023
:10145C00FFF7E6FA02463B69D31A022B01D90323A4
:10146C0020E0124B1B6803F00073002BF0D118E046
:10147C007B68DB69012B01D1012313E00B4B5B680B
:10148C00FB60FB6803F480327B681B6A9A4206D1CE
:10149C00FB6803F470127B685B6A9A4201D00123EB
:1014AC0000E0002318461837BD4680BD00100240EE
:1014BC00007000406000424280B584B000AF78609C
:1014CC0039607B68002B01D10123D0E06A4B1B688B
:1014DC0003F007033A689A4210D9674B1B6823F054
:1014EC00070265493B6813430B60634B1B6803F0B1
:1014FC0007033A689A4201D00123B8E07B681B6865
:10150C0003F00203002B20D07B681B6803F004035C
:10151C00002B05D0594B5B68584A43F4E063536089
:10152C007B681B6803F00803002B05D0534B5B68EA
:10153C00524A43F460535360504B5B6823F0F00203
:10154C007B689B684D4913434B607B681B6803F0B9
:10155C000103002B40D07B685B68012B07D1474B04
:10156C001B6803F40033002B15D101237FE07B684B
:10157C005B68022B07D1414B1B6803F00073002BF7
:10158C0009D1012373E03D4B1B6803F00203002BD0
:10159C0001D101236BE0394B5B6823F003027B68BC
:1015AC005B68364913434B60FFF73AFAF8600AE080
:1015BC00FFF736FA0246FB68D31A41F2883293429F
:1015CC0001D9032353E02D4B5B6803F00C027B68BD
:1015DC005B689B009A42EBD1274B1B6803F0070317
:1015EC003A689A4210D2244B1B6823F00702224916
:1015FC003B6813430B60204B1B6803F007033A68EE
:10160C009A4201D0012332E07B681B6803F004038B
:10161C00002B08D0194B5B6823F4E0627B68DB6815
:10162C00164913434B607B681B6803F00803002BBF
:10163C0009D0124B5B6823F460527B681B69DB009A
:10164C000E4913434B6000F021F802460B4B5B68CC
:10165C001B0903F00F030A49CB5C22FA03F3094A76
:10166C001360094B1B681846FFF798F900231846BE
:10167C001037BD4680BD00BF002002400010024064
:10168C00D8280008000000200400002080B487B097
:10169C0000AF0023FB600023BB6000237B610023B1
:1016AC007B6000233B611E4B5B68FB60FB6803F0B7
:1016BC000C03042B02D0082B03D027E0194B3B6101
:1016CC0027E0FB689B0C03F00F03174AD35C7B608D
:1016DC00FB6803F48033002B10D0114B5B685B0C60
:1016EC0003F00103114AD35CBB607B680D4A02FB1B
:1016FC0003F2BB68B2FBF3F37B6104E07B680C4A3A
:10170C0002FB03F37B617B693B6102E0054B3B61B0
:10171C0000BF3B6918461C37BD4680BC704700BFF4
:10172C000010024000127A00F0280008002900087E
:10173C0000093D0080B400AF024B1B681846BD4643
:10174C0080BC70470000002080B500AFFFF7F2FFAF
:10175C000246054B5B681B0A03F007030349CB5C8D
:10176C0022FA03F3184680BD00100240E828000856
:10177C0080B500AFFFF7DEFF0246054B5B68DB0A66
:10178C0003F007030349CB5C22FA03F3184680BD30
:10179C0000100240E828000880B485B000AF7860E3
:1017AC000A4B1B680A4AA2FB03235B0A7A6802FBFA
:1017BC0003F3FB6000BFFB685A1EFA60002BF9D1E3
:1017CC0000BF00BF1437BD4680BC7047000000202E
:1017DC00D34D621080B582B000AF78607B68002B6F
:1017EC0001D1012341E07B6893F83D30DBB2002B43
:1017FC0006D17B68002283F83C207868FEF794FFC2
:10180C007B68022283F83D207B681A687B6804336E
:10181C001946104600F030FC7B68012283F8462004
:10182C007B68012283F83E207B68012283F83F20ED
:10183C007B68012283F840207B68012283F84120D9
:10184C007B68012283F842207B68012283F84320C5
:10185C007B68012283F844207B68012283F84520B1
:10186C007B68012283F83D20002318460837BD46CB
:10187C0080BD000080B485B000AF78607B6893F8C1
:10188C003D30DBB2012B01D001233AE07B68022210
:10189C0083F83D207B681B68DA687B681B6842F024
:1018AC000102DA607B681B68184A93420ED07B6891
:1018BC001B68B3F1804F09D07B681B68144A9342B4
:1018CC0004D07B681B68134A934211D17B681B6858
:1018DC009B6803F00703FB60FB68062B10D07B684A
:1018EC001B681A687B681B6842F001021A6007E0EB
:1018FC007B681B681A687B681B6842F001021A60DF
:10190C00002318461437BD4680BC7047002C01409C
:10191C00000400400008004080B582B000AF786041
:10192C007B68002B01D1012341E07B6893F83D30AB
:10193C00DBB2002B06D17B68002283F83C20786850
:10194C0000F039F87B68022283F83D207B681A6826
:10195C007B6804331946104600F08EFB7B6801222D
:10196C0083F846207B68012283F83E207B680122A5
:10197C0083F83F207B68012283F840207B6801229A
:10198C0083F841207B68012283F842207B68012286
:10199C0083F843207B68012283F844207B68012272
:1019AC0083F845207B68012283F83D2000231846EC
:1019BC000837BD4680BD80B483B000AF786000BFEF
:1019CC000C37BD4680BC704780B584B000AF7860E2
:1019DC0039603B68002B09D17B6893F83E30DBB251
:1019EC00012B14BF01230023DBB222E03B68042B44
:1019FC0009D17B6893F83F30DBB2012B14BF012374
:101A0C000023DBB215E03B68082B09D17B6893F807
:101A1C004030DBB2012B14BF01230023DBB208E002
:101A2C007B6893F84130DBB2012B14BF01230023F8
:101A3C00DBB2002B01D001235EE03B68002B04D10C
:101A4C007B68022283F83E2013E03B68042B04D110
:101A5C007B68022283F83F200BE03B68082B04D103
:101A6C007B68022283F8402003E07B68022283F823
:101A7C0041207B681B6801223968184600F07CFD08
:101A8C007B681B681E4A934207D17B681B685A6CA3
:101A9C007B681B6842F400425A647B681B68184AD6
:101AAC0093420ED07B681B68B3F1804F09D07B68E2
:101ABC001B68144A934204D07B681B68124A9342F9
:101ACC0011D17B681B689B6803F00703FB60FB6804
:101ADC00062B10D07B681B681A687B681B6842F069
:101AEC0001021A6007E07B681B681A687B681B6838
:101AFC0042F001021A60002318461037BD4680BD23
:101B0C00002C0140000400400008004080B582B069
:101B1C0000AF78607B681B681B6903F00203022B23
:101B2C0022D17B681B68DB6803F00203022B1BD1FC
:101B3C007B681B686FF002021A617B6801221A77BE
:101B4C007B681B689B6903F00303002B03D0786848
:101B5C0000F076FA05E0786800F069FA786800F031
:101B6C0078FA7B6800221A777B681B681B6903F084
:101B7C000403042B22D17B681B68DB6803F004038D
:101B8C00042B1BD17B681B686FF004021A617B6805
:101B9C0002221A777B681B689B6903F44073002B45
:101BAC0003D0786800F04CFA05E0786800F03FFA52
:101BBC00786800F04EFA7B6800221A777B681B6805
:101BCC001B6903F00803082B22D17B681B68DB68B8
:101BDC0003F00803082B1BD17B681B686FF008020D
:101BEC001A617B6804221A777B681B68DB6903F037
:101BFC000303002B03D0786800F022FA05E0786824
:101C0C0000F015FA786800F024FA7B6800221A7745
:101C1C007B681B681B6903F01003102B22D17B68B7
:101C2C001B68DB6803F01003102B1BD17B681B684F
:101C3C006FF010021A617B6808221A777B681B68A8
:101C4C00DB6903F44073002B03D0786800F0F8F9DB
:101C5C0005E0786800F0EBF9786800F0FAF97B6839
:101C6C0000221A777B681B681B6903F00103012BA8
:101C7C000ED17B681B68DB6803F00103012B07D1D5
:101C8C007B681B686FF001021A617868FEF7D8FC5C
:101C9C007B681B681B6903F08003802B0ED17B686B
:101CAC001B68DB6803F08003802B07D17B681B6803
:101CBC006FF080021A61786800F0E9FC7B681B68A1
:101CCC001B6903F04003402B0ED17B681B68DB685B
:101CDC0003F04003402B07D17B681B686FF0400278
:101CEC001A61786800F0BEF97B681B681B6903F009
:101CFC002003202B0ED17B681B68DB6803F02003CC
:101D0C00202B07D17B681B686FF020021A61786862
:101D1C0000F0B4FC00BF0837BD4680BD80B586B06E
:101D2C0000AFF860B9607A600023FB75FB6893F82C
:101D3C003C30012B01D10223AEE0FB68012283F879
:101D4C003C207B680C2B00F29F8001A252F823F000
:101D5C00911D0008951E0008951E0008951E000890
:101D6C00D11D0008951E0008951E0008951E000840
:101D7C00131E0008951E0008951E0008951E0008ED
:101D8C00531E0008FB681B68B968184600F0D6F9AA
:101D9C00FB681B689A69FB681B6842F008029A6131
:101DAC00FB681B689A69FB681B6822F004029A6145
:101DBC00FB681B689969BB681A69FB681B680A4356
:101DCC009A6164E0FB681B68B968184600F01CFA5D
:101DDC00FB681B689A69FB681B6842F400629A6195
:101DEC00FB681B689A69FB681B6822F480629A6125
:101DFC00FB681B689969BB681B691A02FB681B6846
:101E0C000A439A6143E0FB681B68B968184600F006
:101E1C0065FAFB681B68DA69FB681B6842F008020C
:101E2C00DA61FB681B68DA69FB681B6822F0040244
:101E3C00DA61FB681B68D969BB681A69FB681B68A7
:101E4C000A43DA6123E0FB681B68B968184600F0A6
:101E5C00AFFAFB681B68DA69FB681B6842F4006226
:101E6C00DA61FB681B68DA69FB681B6822F4806224
:101E7C00DA61FB681B68D969BB681B691A02FB68CD
:101E8C001B680A43DA6102E00123FB7500BFFB68A3
:101E9C00002283F83C20FB7D18461837BD4680BDD8
:101EAC0080B584B000AF786039600023FB737B6829
:101EBC0093F83C30012B01D10223B4E07B68012262
:101ECC0083F83C207B68022283F83D207B681B68EA
:101EDC009B68BB60BB6823F07703BB60BB6823F4D3
:101EEC007F43BB607B681B68BA689A603B681B6861
:101EFC00B3F5005F3ED0B3F5005F00F28780B3F519
:101F0C00805F00F08680B3F5805F7FD8702B1AD08D
:101F1C00702B7BD8602B50D0602B77D8502B3CD0BB
:101F2C00502B73D8402B58D0402B6FD8302B64D00B
:101F3C00302B6BD8202B60D0202B67D8002B5CD09B
:101F4C00102B5AD062E07B6818683B6899683B6834
:101F5C005A683B68DB6800F0F0FA7B681B689B688A
:101F6C00BB60BB6843F07703BB607B681B68BA68D7
:101F7C009A604FE07B6818683B6899683B685A68C0
:101F8C003B68DB6800F0D9FA7B681B689A687B6851
:101F9C001B6842F480429A603CE07B6818683B689E
:101FAC0059683B68DB681A4600F050FA7B681B687E
:101FBC005021184600F0A7FA2CE07B6818683B68A3
:101FCC0059683B68DB681A4600F06EFA7B681B6840
:101FDC006021184600F097FA1CE07B6818683B6893
:101FEC0059683B68DB681A4600F030FA7B681B685E
:101FFC004021184600F087FA0CE07B681A683B68B1
:10200C001B681946104600F07EFA03E00123FB73AF
:10201C0000E000BF7B68012283F83D207B68002232
:10202C0083F83C20FB7B18461037BD4680BD80B43E
:10203C0083B000AF786000BF0C37BD4680BC7047E2
:10204C0080B483B000AF786000BF0C37BD4680BC55
:10205C00704780B483B000AF786000BF0C37BD46CA
:10206C0080BC704780B483B000AF786000BF0C3781
:10207C00BD4680BC7047000080B485B000AF78606E
:10208C0039607B681B68FB607B68294A93420BD0E4
:10209C007B68B3F1804F07D07B68264A934203D00C
:1020AC007B68254A934208D1FB6823F07003FB60E0
:1020BC003B685B68FA681343FB607B681C4A93427D
:1020CC000BD07B68B3F1804F07D07B68194A9342E1
:1020DC0003D07B68184A934208D1FB6823F4407301
:1020EC00FB603B68DB68FA681343FB60FB6823F01A
:1020FC0080023B685B691343FB607B68FA681A607B
:10210C003B689A687B68DA623B681A687B689A62FB
:10211C007B68074A934203D13B681A697B681A6350
:10212C007B6801225A6100BF1437BD4680BC7047E2
:10213C00002C0140000400400008004080B487B02F
:10214C0000AF786039607B681B6A7B617B681B6AB7
:10215C0023F001027B681A627B685B683B617B68D9
:10216C009B69FB60FB6823F07003FB60FB6823F04A
:10217C000303FB603B681B68FA681343FB607B69D5
:10218C0023F002037B613B689B687A6913437B6194
:10219C007B681C4A93420CD17B6923F008037B615A
:1021AC003B68DB687A6913437B617B6923F004032A
:1021BC007B617B68134A934211D13B6923F4807392
:1021CC003B613B6923F400733B613B685B693A6993
:1021DC0013433B613B689B693A6913433B617B68E2
:1021EC003A695A607B68FA689A613B685A687B68FE
:1021FC005A637B687A691A6200BF1C37BD4680BC83
:10220C00704700BF002C014080B487B000AF7860ED
:10221C0039607B681B6A7B617B681B6A23F0100248
:10222C007B681A627B685B683B617B689B69FB60BF
:10223C00FB6823F4E043FB60FB6823F44073FB6012
:10224C003B681B681B02FA681343FB607B6923F035
:10225C0020037B613B689B681B017A6913437B619C
:10226C007B681D4A93420DD17B6923F080037B610F
:10227C003B68DB681B017A6913437B617B6923F044
:10228C0040037B617B68144A934213D13B6923F46E
:10229C0080633B613B6923F400633B613B685B6992
:1022AC009B003A6913433B613B689B699B003A690D
:1022BC0013433B617B683A695A607B68FA689A61A0
:1022CC003B685A687B689A637B687A691A6200BFBC
:1022DC001C37BD4680BC7047002C014080B487B0D1
:1022EC0000AF786039607B681B6A7B617B681B6A16
:1022FC0023F480727B681A627B685B683B617B6845
:10230C00DB69FB60FB6823F07003FB60FB6823F068
:10231C000303FB603B681B68FA681343FB607B6933
:10232C0023F400737B613B689B681B027A6913433F
:10233C007B617B681D4A93420DD17B6923F400635A
:10234C007B613B68DB681B027A6913437B617B69A9
:10235C0023F480637B617B68144A934213D13B69FD
:10236C0023F480533B613B6923F400533B613B688E
:10237C005B691B013A6913433B613B689B691B0119
:10238C003A6913433B617B683A695A607B68FA6827
:10239C00DA613B685A687B68DA637B687A691A622F
:1023AC0000BF1C37BD4680BC704700BF002C0140ED
:1023BC0080B487B000AF786039607B681B6A3B6182
:1023CC007B681B6A23F480527B681A627B685B68AB
:1023DC007B617B68DB69FB60FB6823F4E043FB609B
:1023EC00FB6823F44073FB603B681B681B02FA68B4
:1023FC001343FB603B6923F400533B613B689B68D0
:10240C001B033A6913433B617B680F4A934209D122
:10241C007B6923F480437B613B685B699B017A6930
:10242C0013437B617B687A695A607B68FA68DA616E
:10243C003B685A687B681A647B683A691A6200BF09
:10244C001C37BD4680BC7047002C014080B487B05F
:10245C0000AFF860B9607A60FB681B6A7B61FB684F
:10246C001B6A23F00102FB681A62FB689B693B61E3
:10247C003B6923F0F0033B617B681B013A69134312
:10248C003B617B6923F00A037B617A69BB68134368
:10249C007B61FB683A699A61FB687A691A6200BFD2
:1024AC001C37BD4680BC704780B487B000AFF86065
:1024BC00B9607A60FB681B6A7B61FB681B6A23F05E
:1024CC001002FB681A62FB689B693B613B6923F451
:1024DC0070433B617B681B033A6913433B617B6927
:1024EC0023F0A0037B61BB681B017A6913437B61FA
:1024FC00FB683A699A61FB687A691A6200BF1C37FB
:10250C00BD4680BC704780B485B000AF7860396040
:10251C007B689B68FB60FB6823F07003FB603A6888
:10252C00FB68134343F00703FB607B68FA689A600F
:10253C0000BF1437BD4680BC704780B487B000AF75
:10254C00F860B9607A603B60FB689B687B617B6973
:10255C0023F47F437B613B681A027B681A43BB6898
:10256C0013437A6913437B61FB687A699A6000BFF5
:10257C001C37BD4680BC704780B487B000AFF86094
:10258C00B9607A60BB6803F01F03012202FA03F3FF
:10259C007B61FB681A6A7B69DB431A40FB681A6231
:1025AC00FB681A6ABB6803F01F03796801FA03F32E
:1025BC001A43FB681A6200BF1C37BD4680BC7047CB
:1025CC0080B485B000AF786039607B6893F83C309C
:1025DC00012B01D1022346E07B68012283F83C20C9
:1025EC007B68022283F83D207B681B685B68FB607C
:1025FC007B681B689B68BB60FB6823F07003FB6007
:10260C003B681B68FA681343FB607B681B68FA68BD
:10261C005A607B681B68164A93420ED07B681B6815
:10262C00B3F1804F09D07B681B68124A934204D0E7
:10263C007B681B68104A93420CD1BB6823F0800363
:10264C00BB603B685B68BA681343BB607B681B6804
:10265C00BA689A607B68012283F83D207B6800226F
:10266C0083F83C20002318461437BD4680BC7047C5
:10267C00002C0140000400400008004080B483B0EE
:10268C0000AF786000BF0C37BD4680BC704780B48B
:10269C0083B000AF786000BF0C37BD4680BC70477C
:1026AC0080B582B000AF78607B68002B01D101232C
:1026BC0042E07B6893F84130DBB2002B06D17B689B
:1026CC00002283F840207868FEF7A0F87B6824226B
:1026DC0083F841207B681B68DA687B681B6822F4EE
:1026EC000052DA60786800F02BF87B681B681A6976
:1026FC007B681B6822F490421A617B681B685A69DC
:10270C007B681B6822F02A025A617B681B68DA68B6
:10271C007B681B6842F40052DA607B6800225A64C2
:10272C007B68202283F841207B68202283F842209A
:10273C007B6800225A63002318460837BD4680BDCB
:10274C0080B584B000AF78607B681B681B6923F48C
:10275C0040517B68DA687B681B680A431A617B68A6
:10276C009A687B681B691A437B685B691343BB607F
:10277C007B681B68DB6823F4B05323F00C037A6886
:10278C001268B9680B43D3607B681B685B6923F4E0
:10279C0040717B689A697B681B680A435A617B6845
:1027AC001B682C4A934203D1FEF7E2FFF86002E06B
:1027BC00FEF7CAFFF860FA6813469B0013449A00B0
:1027CC001A447B685B689B00B2FBF3F3224AA2FBC2
:1027DC0003235B091901FA6813469B0013449A0002
:1027EC001A447B685B689B00B2FBF3F21A4BA3FBA9
:1027FC0002035B09642000FB03F3D31A1B01323381
:10280C00154AA2FB03235B0903F0F0031944FA6891
:10281C0013469B0013449A001A447B685B689B0028
:10282C00B2FBF3F20C4BA3FB02035B09642000FB2D
:10283C0003F3D31A1B013233074AA2FB03235B09B0
:10284C0003F00F027B681B680A449A6000BF1037C4
:10285C00BD4680BD003801401F85EB5170B5002688
:10286C000C4D0D4C641BA410A64209D100F022F8AB
:10287C0000260A4D0A4C641BA410A64205D170BD5B
:10288C0055F8043B98470136EEE755F8043B98475A
:10289C000136F2E70429000804290008042900087D
:1028AC000829000803460244934200D1704703F8FC
:1028BC00011BF9E7F8B500BFF8BC08BC9E46704791
:0C28CC00F8B500BFF8BC08BC9E46704781
:1028D80000000000000000000102030406070809C8
:1028E80000000000010203040203040506070809AA
:0C28F8000A0B0C0D0E0F10100102000066
:042904003101000895
:042908000D010008B5
:0C290C000024F400100000000100000096
:0400000508000931B5
:00000001FF
