:020000040800F2
:1000000000500020D9110008E9100008EF10000886
:10001000F5100008FB1000080111000800000000A6
:1000200000000000000000000000000007110008B0
:1000300013110008000000001F1100082B11000818
:1000400021120008211200082112000821120008C4
:1000500021120008211200082112000821120008B4
:1000600021120008211200082112000821120008A4
:100070002112000821120008211200082112000894
:100080002112000821120008211200082112000884
:100090002112000821120008211200082112000874
:1000A0002112000821120008211200082112000864
:1000B000391100084D110008211200082112000812
:1000C0002112000821120008211200082112000844
:1000D0002112000821120008211200082112000834
:1000E000211200082112000821120008000000005F
:1000F0000000000000000000000000000000000000
:0C01000000000000000000005FF808F1A3
:10010C0010B5054C237833B9044B13B10448AFF345
:10011C0000800123237010BD980000200000000017
:10012C002C35000808B5034B1BB103490348AFF34A
:10013C00008008BD000000009C0000202C35000849
:10014C0084B080B584B000AF786007F11C0080E803
:10015C000E007B68144A82FB03129210DB17D31A31
:10016C00FB607A68104B83FB02139910D317C91AE2
:10017C000B469B000B445B00D31ABB60BB68FA6850
:10018C000A490B4802F092FD03469AB207F11C0093
:10019C004FF47A73064902F0D7FB00BF1037BD4607
:1001AC00BDE8804004B07047676666664435000859
:1001BC007C01002080B582B000AF78607B68002B9A
:1001CC0018D07B68002BC0F283807B68362B7FDCD9
:1001DC007B68332B7CDB7B68333B032B78D801A209
:1001EC0052F823F085020008B10200082D02000825
:1001FC005902000800224FF48061384801F017FBC7
:10020C0000220821364801F012FB0022202134483C
:10021C0001F00DFB00221021314801F008FB58E0E1
:10022C0001224FF480612D4801F001FB00220821CE
:10023C002B4801F0FCFA00222021294801F0F7FAA2
:10024C0001221021264801F0F2FA42E001224FF47B
:10025C008061224801F0EBFA00220821204801F0CD
:10026C00E6FA012220211E4801F0E1FA01221021B8
:10027C001B4801F0DCFA2CE000224FF48061174897
:10028C0001F0D5FA01220821154801F0D0FA01221B
:10029C002021134801F0CBFA00221021104801F064
:1002AC00C6FA16E001224FF480610C4801F0BFFA47
:1002BC00012208210A4801F0BAFA0122202108483B
:1002CC0001F0B5FA00221021054801F0B0FA00E067
:1002DC0000BF00BF0837BD4680BD00BF000801400D
:1002EC00000C014080B582B000AF78607B68212B98
:1002FC0055D07B68212B66DC7B68002B03D07B6898
:10030C001F2B16D05FE000224FF48061304801F0C3
:10031C008EFA002208212F4801F089FA00222021B0
:10032C002C4801F084FA002210212A4801F07FFAAF
:10033C004AE0294B1B68002B18D101224FF4806135
:10034C00234801F074FA01220821224801F06FFAC7
:10035C00012220211F4801F06AFA012210211D48B8
:10036C0001F065FA1C4B01221A602DE000224FF4BB
:10037C008061174801F05BFA00220821154801F052
:10038C0056FA00222021134801F051FA00221021C4
:10039C00104801F04CFA104B00221A6014E00821AE
:1003AC000C4801F05CFA00224FF48061084801F01F
:1003BC003EFA1021074801F052FA0022202105488C
:1003CC0001F035FA00E000BF00BF0837BD4680BD24
:1003DC0000080140000C0140B4000020F0B593B0BF
:1003EC0010AFA04B1B68333B032B00F2B28101A270
:1003FC0052F823F0A3050008910600081104000828
:10040C00D90400083520FFF7D5FE974B1B68012B4C
:10041C0013D1964B1A68964B1B68D31A954A1360E6
:10042C00904B36221A60934B1B684FF47A7202FB86
:10043C0003F31946002000F047FD8B4B9B68012B02
:10044C0030D18D4B1B687B608C4E6D4606F10C04D5
:10045C000FCC0FC50FCC0FC50FCC0FC594E8070000
:10046C0085E8070096E80E007868FFF769FE814B77
:10047C001B687B60814E6D4606F10C040FCC0FC5DA
:10048C000FCC0FC50FCC0FC594E8070085E807000B
:10049C0096E80E007868FFF753FE4FF47A7102204D
:1004AC0000F012FD002000F09FFA0346002B02D052
:1004BC006C4B35221A60032000F096FA0346002B91
:1004CC0000F04981674B2B221A6044E13620FFF77C
:1004DC0071FE654B1B68012B14D1654B1B68664A7A
:1004EC001360624B1B68634A13605E4B33221A60C5
:1004FC00614B1B684FF47A7202FB03F31946002020
:10050C0000F0E2FC584B9B68012B30D15A4B1B6816
:10051C007B605A4E6D4606F10C040FCC0FC50FCC08
:10052C000FC50FCC0FC594E8070085E8070096E8C7
:10053C000E007868FFF704FE4E4B1B687B604F4E35
:10054C006D4606F10C040FCC0FC50FCC0FC50FCCAC
:10055C000FC594E8070085E8070096E80E00786858
:10056C00FFF7EEFD4FF47A71022000F0ADFC002095
:10057C0000F03AFA0346002B02D03A4B36221A60AE
:10058C00032000F031FA0346002B00F0E680354BD7
:10059C002B221A60E1E03320FFF70CFE324B1B6874
:1005AC00012B16D1364B34221A60304B1A68304B63
:1005BC001B68D31A304A13602A4B34221A602E4B14
:1005CC001B684FF47A7202FB03F31946002000F00B
:1005DC007BFC254B9B68012B30D1274B1B687B6028
:1005EC00264E6D4606F10C040FCC0FC50FCC0FC573
:1005FC000FCC0FC594E8070085E8070096E80E00BD
:10060C007868FFF79DFD1B4B1B687B601B4E6D468E
:10061C0006F10C040FCC0FC50FCC0FC50FCC0FC5BA
:10062C0094E8070085E8070096E80E007868FFF765
:10063C0087FD4FF47A71022000F046FC002000F098
:10064C00D3F90346002B02D0064B33221A60032049
:10065C0000F0CAF90346002B00F08180014B2A22DE
:10066C001A607CE078010020480100200000002086
:10067C0008000020C0000020BC0000204002002028
:10068C00B80000203420FFF795FD384B1B68012B78
:10069C0017D1374B35221A60364B1B68364A13601C
:1006AC00364B1B68364A1360364B35221A60344B76
:1006BC001B684FF47A7202FB03F31946002000F01A
:1006CC0003FC2A4B9B68012B30D12B4B1B687B60A6
:1006DC002D4E6D4606F10C040FCC0FC50FCC0FC57B
:1006EC000FCC0FC594E8070085E8070096E80E00CC
:1006FC007868FFF725FD224B1B687B60224E6D4608
:10070C0006F10C040FCC0FC50FCC0FC50FCC0FC5C9
:10071C0094E8070085E8070096E80E007868FFF774
:10072C000FFD4FF47A71022000F0CEFB002000F098
:10073C005BF90346002B02D0124B34221A600320C3
:10074C0000F052F90346002B0BD00E4B2A221A60F4
:10075C0007E000BF06E000BF04E000BF02E000BFFE
:10076C0000E000BF00BF0C37BD46F0BD48010020C3
:10077C00B800002000000020BC0000200800002071
:10078C00C00000207801002040020020F0B593B09A
:10079C0010AF78607B681F3B032B00F20D8101A228
:1007AC0052F823F0C10700082D080008C5080008FE
:1007BC002F090008874BDB68012B07D14FF4FA7126
:1007CC00032000F081FB1F20FFF78CFD012000F0BF
:1007DC000BF90346002B00F0F18020237B607E4B4D
:1007EC001B6801337C4A13607C4B1B6801337B4ACA
:1007FC001360794B1B683B60794E6D4606F10C0417
:10080C000FCC0FC50FCC0FC50FCC0FC594E807004C
:10081C0085E8070096E80E003868FFF791FCCDE0FC
:10082C006C4BDB68012B07D14FF4FA71032000F0FD
:10083C004BFB1F20FFF756FD012000F0D5F80346B7
:10084C00002B2FD020237B60634B1B680133624A43
:10085C001360624B1B680133604A13605E4B1B686C
:10086C00642B09D15C4B01221A605B4B1A685D4BFF
:10087C001B681344594A1360574B1B683B60584E16
:10088C006D4606F10C040FCC0FC50FCC0FC50FCC69
:10089C000FC594E8070085E8070096E80E00386855
:1008AC00FFF74EFC022000F09FF80346002B00F0EF
:1008BC0087801F237B6083E0464BDB68012B07D1CD
:1008CC004FF4FA71032000F0FFFA2120FFF70AFD24
:1008DC00012000F089F80346002B73D022237B60A3
:1008EC00404B1B6801333F4A13603C4B1B68013380
:1008FC003A4A13603B4B1B683B60394E6D4606F120
:10090C000C040FCC0FC50FCC0FC50FCC0FC594E842
:10091C00070085E8070096E80E003868FFF710FC22
:10092C0050E02C4BDB68012B07D14FF4FA710320FC
:10093C0000F0CAFA1F20FFF7D5FC012000F054F894
:10094C000346002B2FD020237B60234B1B680133E5
:10095C00214A1360214B1B680133204A13601E4B44
:10096C001B68642B09D11C4B01221A601A4B1A68A4
:10097C001C4B1B681344194A1360174B1B683B60D4
:10098C00174E6D4606F10C040FCC0FC50FCC0FC5DE
:10099C000FCC0FC594E8070085E8070096E80E0019
:1009AC003868FFF7CDFB022000F01EF80346002B41
:1009BC000AD021237B6007E000BF06E000BF04E003
:1009CC0000BF02E000BF00E000BF00BF0C37BD4617
:1009DC00F0BD00BF480100200400002000000020F2
:1009EC00400200200800002080B483B000AF786083
:1009FC007B68032B01DD00230DE0094A7B6852F86C
:100A0C002330012B06D1064A7B68002142F82310C3
:100A1C00012300E0002318460C37BD4680BC70470C
:100A2C001401002080B483B000AF7860044A7B6866
:100A3C00012142F8231000BF0C37BD4680BC704723
:100A4C001401002080B582B000AF00237B6070E001
:100A5C003C4A7B6852F823203B497B6841F82320B1
:100A6C003A4A7B6852F8232036497B6841F82320A8
:100A7C00374A7B6852F8232036497B6831F81330AB
:100A8C001946104600F0BCFE034619462F4A7B68F7
:100A9C0042F823102B4A7B6852F823202B497B68A1
:100AAC0051F823309A4241D1264A7B6852F82320D0
:100ABC0025497B6851F823309A4237D1224A7B680A
:100ACC0052F8232024497B6851F823309A4216D0DF
:100ADC001D4A7B6852F823201F497B6841F823206C
:100AEC001D4A7B6852F82330002B1FD11B4A7B68B0
:100AFC00642142F823107868FFF794FF16E0174A38
:100B0C007B6852F823305A1E14497B6841F8232025
:100B1C00124A7B6852F82330002B07D10F4A7B68AE
:100B2C00642142F823107868FFF77CFF7B6801335F
:100B3C007B607B68032B8BDD00BF00BF0837BD4695
:100B4C0080BD00BFD4000020E4000020C4000020C1
:100B5C000C0000201C000020F400002004010020E8
:100B6C0080B500AF00F058FB00F02AF800F028F92F
:100B7C0000F062F800F0ACF800F0F8F80D4B3522FC
:100B8C001A600D4801F0E2FA0C4801F0DFFA41F26C
:100B9C008831002000F098F94FF47A71022000F0AF
:100BAC0093F9FFF71BFC034B1B681846FFF7EEFD90
:100BBC00F7E700BF78010020F8010020B001002009
:100BCC0080B590B000AF07F1180328220021184619
:100BDC0002F064F83B1D00221A605A609A60DA60D9
:100BEC001A610223BB610123BB621023FB62002349
:100BFC007B6307F11803184600F04AFE0346002BEE
:100C0C0001D000F05CF90F237B600023BB60002354
:100C1C00FB6000233B6100237B613B1D00211846D8
:100C2C0001F0B6F80346002B01D000F048F900BFE4
:100C3C004037BD4680BD000080B586B000AF07F1DF
:100C4C00080300221A605A609A60DA603B46002260
:100C5C001A605A601D4B4FF080421A601B4B3F22AA
:100C6C005A601A4B00229A60184B42F20F72DA60EB
:100C7C00164B00221A61154B00229A61134801F0A1
:100C8C0015FA0346002B01D000F019F94FF48053EC
:100C9C00BB6007F1080319460C4801F0B1FB034691
:100CAC00002B01D000F00BF900233B6000237B608C
:100CBC003B461946054801F087FD0346002B01D041
:100CCC0000F0FDF800BF1837BD4680BDF8010020CC
:100CDC0080B586B000AF07F1080300221A605A6095
:100CEC009A60DA603B4600221A605A601D4B1E4A1D
:100CFC001A601C4B3F225A601A4B00229A60194B07
:100D0C0040F2E732DA60174B00221A61154B0022D1
:100D1C009A61144801F0CAF90346002B01D000F087
:100D2C00CEF84FF48053BB6007F1080319460D4809
:100D3C0001F066FB0346002B01D000F0C0F8002345
:100D4C003B6000237B603B461946064801F03CFDA6
:100D5C000346002B01D000F0B2F800BF1837BD4697
:100D6C0080BD00BFB00100200004004080B500AF82
:100D7C00114B124A1A60104B4FF4E1325A600E4B71
:100D8C0000229A600C4B0022DA600B4B00221A6195
:100D9C00094B0C225A61084B00229A61064B002227
:100DAC00DA61054801F080FD0346002B01D000F00C
:100DBC0086F800BF80BD00BF400200200044004008
:100DCC0080B586B000AF07F1080300221A605A60A4
:100DDC009A60DA602E4B9B692D4A43F004039361B1
:100DEC002B4B9B6903F004037B607B68284B9B694E
:100DFC00274A43F008039361254B9B6903F00803D2
:100E0C003B603B6800224FF4A861224800F00FFDC4
:100E1C0000224FF48761204800F009FD1323BB60CA
:100E2C000023FB6000233B6107F1080319461948B6
:100E3C0000F062FB4FF4A863BB600123FB6000234E
:100E4C003B6102237B6107F108031946114800F04E
:100E5C0053FB0123BB600023FB6000233B6107F1C4
:100E6C00080319460C4800F047FB4FF48763BB603E
:100E7C000123FB6000233B6102237B6107F1080324
:100E8C001946054800F038FB00BF1837BD4680BD39
:100E9C000010024000080140000C014080B582B0F7
:100EAC0000AF78607B681B68B3F1804F03D1FFF70C
:100EBC00C9FD00F027F800BF0837BD4680BD80B4DF
:100ECC0000AF72B600BFFEE780B483B000AF7860AD
:100EDC003960094B1B683A6892FBF3F207497B684F
:100EEC0041F82320064A7B68002142F8231000BFFA
:100EFC000C37BD4680BC7047240000202401002024
:100F0C004801002080B483B000AF00237B601CE05C
:100F1C00124A7B6852F82330002B13DD0F4A7B6892
:100F2C0052F823305A1E0D497B6841F823200B4A96
:100F3C007B6852F82330002B04DC094A7B680121C2
:100F4C0042F823107B6801337B607B68082BDFDD64
:100F5C0000BF00BF0C37BD4680BC70472401002089
:100F6C004801002080B485B000AF154B9B69144A32
:100F7C0043F001039361124B9B6903F00103BB60C7
:100F8C00BB680F4BDB690E4A43F08053D3610C4BAB
:100F9C00DB6903F080537B607B680A4B5B68FB600A
:100FAC00FB6823F0E063FB60FB6843F00073FB60BD
:100FBC00044AFB68536000BF1437BD4680BC7047C1
:100FCC00001002400000014080B584B000AF786092
:100FDC007B681B68B3F1804F14D1194BDB69184A3D
:100FEC0043F00103D361164BDB6903F00103FB6093
:100FFC00FB68002200211C2000F047FA1C2000F0A6
:10100C0060FA18E07B681B680E4A934213D10C4BB4
:10101C00DB690B4A43F00203D361094BDB6903F034
:10102C000203BB60BB68002200211D2000F02DFADA
:10103C001D2000F046FA00BF1037BD4680BD00BF32
:10104C00001002400004004080B588B000AF78600A
:10105C0007F1100300221A605A609A60DA607B680C
:10106C001B681B4A93422FD11A4BDB69194A43F474
:10107C000033D361174BDB6903F40033FB60FB686F
:10108C00144B9B69134A43F004039361114B9B6906
:10109C0003F00403BB60BB6804233B6102237B6148
:1010AC000323FB6107F1100319460B4800F024FAE7
:1010BC0008233B6100237B610023BB6107F1100314
:1010CC001946054800F018FA00BF2037BD4680BD10
:1010DC0000440040001002400008014080B400AF02
:1010EC00FEE780B400AFFEE780B400AFFEE780B44B
:1010FC0000AFFEE780B400AFFEE780B400AF00BFE6
:10110C00BD4680BC704780B400AF00BFBD4680BCFC
:10111C00704780B400AF00BFBD4680BC704780B53F
:10112C0000AF00F0BFF800BF80BD000080B500AF7D
:10113C00024801F05DF800BF80BD00BFF80100203F
:10114C0080B500AF024801F053F800BF80BD00BF6E
:10115C00B001002080B586B000AF7860144A154B02
:10116C00D31A7B617B693B61134B1B68002B02D14B
:10117C00114B124A1A60104B1A687B6813443A6977
:10118C009A4207D201F060FD03460C221A604FF020
:10119C00FF3309E0084B1B68FB60074B1A687B6840
:1011AC001344054A1360FB6818461837BD4680BDCA
:1011BC0000500020000400006C010020A002002060
:1011CC0080B400AF00BFBD4680BC7047FFF7F8FF8E
:1011DC000B480C490C4A002302E0D458C450043389
:1011EC00C4188C42F9D3094A094C002301E013605E
:1011FC000432A242FBD301F02DFDFFF7B1FC704786
:10120C000000002098000020BC3500089800002049
:10121C009C020020FEE7000080B500AF084B1B6865
:10122C00074A43F010031360032000F023F90F204A
:10123C0000F008F8FFF796FE0023184680BD00BFAB
:10124C000020024080B582B000AF7860124B1A6863
:10125C00124B1B7819464FF47A73B3FBF1F3B2FBC4
:10126C00F3F3184600F03BF90346002B01D00123A1
:10127C000EE07B680F2B0AD8002279684FF0FF3004
:10128C0000F003F9064A7B681360002300E0012399
:10129C0018460837BD4680BD2800002030000020CD
:1012AC002C00002080B400AF054B1B781A46054B70
:1012BC001B681344034A136000BFBD4680BC7047D3
:1012CC00300000208802002080B400AF024B1B6865
:1012DC001846BD4680BC70478802002080B485B09B
:1012EC0000AF78607B6803F00703FB600C4BDB6896
:1012FC00BB60BA684FF6FF031340BB60FB681A0271
:10130C00BB68134343F0BF6343F40033BB60044A30
:10131C00BB68D36000BF1437BD4680BC704700BFAC
:10132C0000ED00E080B400AF044BDB681B0A03F057
:10133C0007031846BD4680BC704700BF00ED00E0B7
:10134C0080B483B000AF0346FB7197F90730002BD4
:10135C000BDBFB7903F01F02064997F907305B0999
:10136C00012000FA02F241F8232000BF0C37BD46E1
:10137C0080BC704700E100E080B483B000AF03464E
:10138C003960FB7197F90730002B0ADB3B68DAB246
:10139C000C4997F907301201D2B20B4483F80023A1
:1013AC000AE03B68DAB20849FB7903F00F03043B0F
:1013BC001201D2B20B441A7600BF0C37BD4680BC6A
:1013CC00704700BF00E100E000ED00E080B489B0A0
:1013DC0000AFF860B9607A60FB6803F00703FB614B
:1013EC00FB69C3F10703042B28BF0423BB61FB6912
:1013FC000433062B02D9FB69033B00E000237B611D
:10140C004FF0FF32BB6902FA03F3DA43BB681A40B0
:10141C007B699A404FF0FF317B6901FA03F3D943A2
:10142C007B680B40134318462437BD4680BC70477D
:10143C0080B582B000AF78607B68013BB3F1807FF0
:10144C0001D301230FE00A4A7B68013B53600F2153
:10145C004FF0FF30FFF790FF054B00229A60044BD2
:10146C0007221A60002318460837BD4680BD00BF0E
:10147C0010E000E080B582B000AF78607868FFF7CC
:10148C002DFF00BF0837BD4680BD80B586B000AFCC
:10149C000346B9607A60FB7300237B61FFF742FF60
:1014AC0078617A68B9687869FFF790FF024697F916
:1014BC000F3011461846FFF75FFF00BF1837BD46C7
:1014CC0080BD80B582B000AF0346FB7197F9073041
:1014DC001846FFF735FF00BF0837BD4680BD80B505
:1014EC0082B000AF78607868FFF7A2FF0346184619
:1014FC000837BD4680BD000080B48BB000AF78606B
:10150C00396000237B6200233B6269E101227B6A24
:10151C0002FA03F3FB613B681B68FA691340BB6179
:10152C00BA69FB699A4240F058813B685B689A4AF9
:10153C0093425ED0984A934275D8984A934258D0B9
:10154C00964A93426FD8964A934252D0944A934209
:10155C0069D8944A93424CD0924A934263D8924AA7
:10156C00934246D0904A93425DD8122B2AD8122B24
:10157C0059D801A252F823F0FF150008D91500081C
:10158C00EB1500082D16000833160008331600085A
:10159C0033160008331600083316000833160008FB
:1015AC0033160008331600083316000833160008EB
:1015BC00331600083316000833160008E11500082E
:1015CC00F5150008794A934213D02CE03B68DB6890
:1015DC003B6229E03B68DB6804333B6224E03B68F8
:1015EC00DB6808333B621FE03B68DB680C333B6213
:1015FC001AE03B689B68002B02D104233B6213E08A
:10160C003B689B68012B05D108233B627B68FA6918
:10161C001A6109E008233B627B68FA695A6103E0AE
:10162C0000233B6200E000BFBB69FF2B01D87B6845
:10163C0001E07B6804337B61BB69FF2B02D87B6ABA
:10164C009B0002E07B6A083B9B003B617B691A684C
:10165C000F213B6901FA03F3DB431A40396A3B69FA
:10166C0001FA03F31A437B691A603B685B6803F069
:10167C008053002B00F0B1804D4B9B694C4A43F0DA
:10168C00010393614A4B9B6903F00103BB60BB6888
:10169C00484A7B6A9B08023352F82330FB607B6A12
:1016AC0003F003039B000F2202FA03F3DB43FA68F7
:1016BC001340FB607B68404A934213D07B683F4ADF
:1016CC0093420DD07B683E4A934207D07B683D4ADB
:1016DC00934201D1032306E0042304E0022302E039
:1016EC00012300E000237A6A02F003029200934087
:1016FC00FA681343FB602F497B6A9B080233FA6834
:10170C0041F823203B685B6803F48013002B06D060
:10171C002D4B9A682C49BB6913438B6006E02A4B0E
:10172C009A68BB69DB43284913408B603B685B6854
:10173C0003F40013002B06D0234BDA682249BB6953
:10174C001343CB6006E0204BDA68BB69DB431E49D0
:10175C001340CB603B685B6803F40033002B06D06E
:10176C00194B5A681849BB6913434B6006E0164B7A
:10177C005A68BB69DB43144913404B603B685B6898
:10178C0003F48033002B21D00F4B1A680E49BB6930
:10179C0013430B6021E000BF000032100000311039
:1017AC000000221000002110000012100000111087
:1017BC00001002400000014000080140000C0140F4
:1017CC000010014000140140000401400B4B1A684A
:1017DC00BB69DB43094913400B607B6A01337B62B5
:1017EC003B681A687B6A22FA03F3002B7FF48EAEF7
:1017FC0000BF00BF2C37BD4680BC704700040140C1
:10180C0080B485B000AF78600B467B807B689A68AB
:10181C007B881340002B02D00123FB7301E00023D3
:10182C00FB73FB7B18461437BD4680BC704780B4F5
:10183C0083B000AF78600B467B8013467B707B785F
:10184C00002B03D07A887B681A6103E07B881A042A
:10185C007B681A6100BF0C37BD4680BC704780B4F2
:10186C0085B000AF78600B467B807B68DB68FB60E3
:10187C007A88FB6813401A04FB68D9437B880B40B9
:10188C001A437B681A6100BF1437BD4680BC704791
:10189C0080B586B000AF78607B68002B01D1012346
:1018AC006CE27B681B6803F00103002B00F087805F
:1018BC00924B5B6803F00C03042B0CD08F4B5B68D2
:1018CC0003F00C03082B12D18C4B5B6803F48033B0
:1018DC00B3F5803F0BD1894B1B6803F40033002B0D
:1018EC006CD07B685B68002B68D1012346E27B6877
:1018FC005B68B3F5803F06D1804B1B687F4A43F48D
:10190C00803313602EE07B685B68002B0CD17B4B23
:10191C001B687A4A23F480331360784B1B68774A30
:10192C0023F4802313601DE07B685B68B3F5A02F64
:10193C000CD1724B1B68714A43F4802313606F4BBC
:10194C001B686E4A43F4803313600BE06B4B1B68CF
:10195C006A4A23F480331360684B1B68674A23F48C
:10196C00802313607B685B68002B13D0FFF7ACFC03
:10197C00386108E0FFF7A8FC02463B69D31A642BD8
:10198C0001D90323FAE15D4B1B6803F40033002BF0
:10199C00F0D014E0FFF798FC386108E0FFF794FCF6
:1019AC0002463B69D31A642B01D90323E6E1534B5E
:1019BC001B6803F40033002BF0D100E000BF7B6800
:1019CC001B6803F00203002B63D04C4B5B6803F0E5
:1019DC000C03002B0BD0494B5B6803F00C03082B5A
:1019EC001CD1464B5B6803F48033002B16D1434B60
:1019FC001B6803F00203002B05D07B681B69012BCD
:101A0C0001D00123BAE13D4B1B6823F0F8027B683F
:101A1C005B69DB00394913430B603AE07B681B6957
:101A2C00002B20D0364B01221A60FFF74DFC386199
:101A3C0008E0FFF749FC02463B69D31A022B01D997
:101A4C0003239BE12D4B1B6803F00203002BF0D00A
:101A5C002A4B1B6823F0F8027B685B69DB00274983
:101A6C0013430B6015E0264B00221A60FFF72CFC89
:101A7C00386108E0FFF728FC02463B69D31A022BB9
:101A8C0001D903237AE11D4B1B6803F00203002BE1
:101A9C00F0D17B681B6803F00803002B3AD07B68FD
:101AAC009B69002B19D0174B01221A60FFF70CFC15
:101ABC00386108E0FFF708FC02463B69D31A022B99
:101ACC0001D903235AE10D4B5B6A03F00203002B8F
:101ADC00F0D0012000F0CCFA1CE00A4B00221A6076
:101AEC00FFF7F2FB38610FE0FFF7EEFB02463B69B4
:101AFC00D31A022B08D9032340E100BF0010024087
:101B0C0000004242800442429E4B5B6A03F0020397
:101B1C00002BE9D17B681B6803F00403002B00F059
:101B2C00A6800023FB75974BDB6903F08053002BD9
:101B3C000DD1944BDB69934A43F08053D361914BA5
:101B4C00DB6903F08053BB60BB680123FB758E4BD4
:101B5C001B6803F48073002B18D18B4B1B688A4ACB
:101B6C0043F480731360FFF7AFFB386108E0FFF7B5
:101B7C00ABFB02463B69D31A642B01D90323FDE06E
:101B8C00814B1B6803F48073002BF0D07B68DB68FF
:101B9C00012B06D17B4B1B6A7A4A43F0010313627B
:101BAC002DE07B68DB68002B0CD1764B1B6A754AE9
:101BBC0023F001031362734B1B6A724A23F0040374
:101BCC0013621CE07B68DB68052B0CD16D4B1B6A28
:101BDC006C4A43F0040313626A4B1B6A694A43F074
:101BEC00010313620BE0674B1B6A664A23F0010387
:101BFC001362644B1B6A634A23F0040313627B6811
:101C0C00DB68002B15D0FFF75FFB38610AE0FFF7AC
:101C1C005BFB02463B69D31A41F28832934201D9ED
:101C2C000323ABE0574B1B6A03F00203002BEED0EF
:101C3C0014E0FFF749FB38610AE0FFF745FB024669
:101C4C003B69D31A41F28832934201D9032395E0C0
:101C5C004C4B1B6A03F00203002BEED1FB7D012BD6
:101C6C0005D1484BDB69474A23F08053D3617B682D
:101C7C00DB69002B00F08180424B5B6803F00C03A6
:101C8C00082B61D07B68DB69022B46D13F4B0022CD
:101C9C001A60FFF719FB386108E0FFF715FB0246E5
:101CAC003B69D31A022B01D9032367E0354B1B6820
:101CBC0003F00073002BF0D17B681B6AB3F5803FF7
:101CCC0008D1304B5B6823F400327B689B682D494C
:101CDC0013434B602B4B5B6823F474127B68196ABB
:101CEC007B685B6A0B43274913434B60274B0122EC
:101CFC001A60FFF7E9FA386108E0FFF7E5FA0246E7
:101D0C003B69D31A022B01D9032337E01D4B1B6807
:101D1C0003F00073002BF0D02FE01C4B00221A6054
:101D2C00FFF7D2FA386108E0FFF7CEFA02463B69BA
:101D3C00D31A022B01D9032320E0124B1B6803F0AA
:101D4C000073002BF0D118E07B68DB69012B01D10B
:101D5C00012313E00B4B5B68FB60FB6803F48032E0
:101D6C007B681B6A9A4206D1FB6803F470127B688D
:101D7C005B6A9A4201D0012300E000231846183711
:101D8C00BD4680BD00100240007000406000424221
:101D9C0080B584B000AF786039607B68002B01D1CE
:101DAC000123D0E06A4B1B6803F007033A689A42A0
:101DBC0010D9674B1B6823F0070265493B68134336
:101DCC000B60634B1B6803F007033A689A4201D01F
:101DDC000123B8E07B681B6803F00203002B20D0C2
:101DEC007B681B6803F00403002B05D0594B5B6820
:101DFC00584A43F4E06353607B681B6803F00803A4
:101E0C00002B05D0534B5B68524A43F4605353602C
:101E1C00504B5B6823F0F0027B689B684D49134381
:101E2C004B607B681B6803F00103002B40D07B6880
:101E3C005B68012B07D1474B1B6803F40033002B65
:101E4C0015D101237FE07B685B68022B07D1414BE6
:101E5C001B6803F00073002B09D1012373E03D4B89
:101E6C001B6803F00203002B01D101236BE0394BFB
:101E7C005B6823F003027B685B68364913434B6055
:101E8C00FFF722FAF8600AE0FFF71EFA0246FB6839
:101E9C00D31A41F28832934201D9032353E02D4BDC
:101EAC005B6803F00C027B685B689B009A42EBD189
:101EBC00274B1B6803F007033A689A4210D2244B55
:101ECC001B6823F0070222493B6813430B60204B2D
:101EDC001B6803F007033A689A4201D0012332E0F1
:101EEC007B681B6803F00403002B08D0194B5B685C
:101EFC0023F4E0627B68DB68164913434B607B6814
:101F0C001B6803F00803002B09D0124B5B6823F409
:101F1C0060527B681B69DB000E4913434B6000F079
:101F2C0021F802460B4B5B681B0903F00F030A49AF
:101F3C00CB5C22FA03F3094A1360094B1B68184661
:101F4C00FFF780F9002318461037BD4680BD00BF4F
:101F5C0000200240001002405435000828000020E8
:101F6C002C00002080B487B000AF0023FB6000235E
:101F7C00BB6000237B6100237B6000233B611E4B15
:101F8C005B68FB60FB6803F00C03042B02D0082B8E
:101F9C0003D027E0194B3B6127E0FB689B0C03F057
:101FAC000F03174AD35C7B60FB6803F48033002B70
:101FBC0010D0114B5B685B0C03F00103114AD35C2E
:101FCC00BB607B680D4A02FB03F2BB68B2FBF3F308
:101FDC007B6104E07B680C4A02FB03F37B617B6949
:101FEC003B6102E0054B3B6100BF3B6918461C3767
:101FFC00BD4680BC704700BF0010024000127A0042
:10200C006C3500087C35000800093D0080B400AF39
:10201C00024B1B681846BD4680BC70472800002048
:10202C0080B500AFFFF7F2FF0246054B5B681B0A59
:10203C0003F007030349CB5C22FA03F3184680BD77
:10204C00001002406435000880B500AFFFF7DEFFDA
:10205C000246054B5B68DB0A03F007030349CB5CC4
:10206C0022FA03F3184680BD0010024064350008C4
:10207C0080B485B000AF78600A4B1B680A4AA2FB9B
:10208C0003235B0A7A6802FB03F3FB6000BFFB6867
:10209C005A1EFA60002BF9D100BF00BF1437BD46A1
:1020AC0080BC704728000020D34D621080B582B0F0
:1020BC0000AF78607B68002B01D1012341E07B6885
:1020CC0093F83D30DBB2002B06D17B68002283F8FD
:1020DC003C207868FEF778FF7B68022283F83D206D
:1020EC007B681A687B6804331946104600F074FA52
:1020FC007B68012283F846207B68012283F83E200E
:10210C007B68012283F83F207B68012283F8402002
:10211C007B68012283F841207B68012283F84220EE
:10212C007B68012283F843207B68012283F84420DA
:10213C007B68012283F845207B68012283F83D20CF
:10214C00002318460837BD4680BD000080B485B01A
:10215C0000AF78607B6893F83D30DBB2012B01D087
:10216C0001233AE07B68022283F83D207B681B68E0
:10217C00DA687B681B6842F00102DA607B681B68D6
:10218C00184A93420ED07B681B68B3F1804F09D07C
:10219C007B681B68144A934204D07B681B68134A03
:1021AC00934211D17B681B689B6803F00703FB60AB
:1021BC00FB68062B10D07B681B681A687B681B6851
:1021CC0042F001021A6007E07B681B681A687B68A2
:1021DC001B6842F001021A60002318461437BD46F2
:1021EC0080BC7047002C01400004004000080040F7
:1021FC0080B582B000AF78607B681B681B6903F008
:10220C000203022B22D17B681B68DB6803F00203FC
:10221C00022B1BD17B681B686FF002021A617B6872
:10222C0001221A777B681B689B6903F00303002B60
:10223C0003D0786800F0B4F905E0786800F0A7F9ED
:10224C00786800F0B6F97B6800221A777B681B6807
:10225C001B6903F00403042B22D17B681B68DB6829
:10226C0003F00403042B1BD17B681B686FF0040282
:10227C001A617B6802221A777B681B689B6903F4DE
:10228C004073002B03D0786800F08AF905E0786879
:10229C0000F07DF9786800F08CF97B6800221A77E1
:1022AC007B681B681B6903F00803082B22D17B6831
:1022BC001B68DB6803F00803082B1BD17B681B68C9
:1022CC006FF008021A617B6804221A777B681B681E
:1022DC00DB6903F00303002B03D0786800F060F98E
:1022EC0005E0786800F053F9786800F062F97B68D3
:1022FC0000221A777B681B681B6903F01003102BF4
:10230C0022D17B681B68DB6803F01003102B1BD1F8
:10231C007B681B686FF010021A617B6808221A77C1
:10232C007B681B68DB6903F44073002B03D078686F
:10233C0000F036F905E0786800F029F9786800F0CB
:10234C0038F97B6800221A777B681B681B6903F0DD
:10235C000103012B0ED17B681B68DB6803F00103C2
:10236C00012B07D17B681B686FF001021A6178683A
:10237C00FEF794FD7B681B681B6903F08003802BC0
:10238C000ED17B681B68DB6803F08003802B07D1C0
:10239C007B681B686FF080021A61786800F07BFA2A
:1023AC007B681B681B6903F04003402B0ED17B68D4
:1023BC001B68DB6803F04003402B07D17B681B686C
:1023CC006FF040021A61786800F0FCF87B681B68BB
:1023DC001B6903F02003202B0ED17B681B68DB6884
:1023EC0003F02003202B07D17B681B686FF02002C1
:1023FC001A61786800F046FA00BF0837BD4680BD08
:10240C0080B584B000AF786039600023FB737B68C3
:10241C0093F83C30012B01D10223B4E07B680122FC
:10242C0083F83C207B68022283F83D207B681B6884
:10243C009B68BB60BB6823F07703BB60BB6823F46D
:10244C007F43BB607B681B68BA689A603B681B68FB
:10245C00B3F5005F3ED0B3F5005F00F28780B3F5B3
:10246C00805F00F08680B3F5805F7FD8702B1AD028
:10247C00702B7BD8602B50D0602B77D8502B3CD056
:10248C00502B73D8402B58D0402B6FD8302B64D0A6
:10249C00302B6BD8202B60D0202B67D8002B5CD036
:1024AC00102B5AD062E07B6818683B6899683B68CF
:1024BC005A683B68DB6800F068F97B681B689B68AE
:1024CC00BB60BB6843F07703BB607B681B68BA6872
:1024DC009A604FE07B6818683B6899683B685A685B
:1024EC003B68DB6800F051F97B681B689A687B6875
:1024FC001B6842F480429A603CE07B6818683B6839
:10250C0059683B68DB681A4600F0C8F87B681B68A2
:10251C005021184600F01FF92CE07B6818683B68C6
:10252C0059683B68DB681A4600F0E6F87B681B6864
:10253C006021184600F00FF91CE07B6818683B68B6
:10254C0059683B68DB681A4600F0A8F87B681B6882
:10255C004021184600F0FFF80CE07B681A683B68D5
:10256C001B681946104600F0F6F803E00123FB73D4
:10257C0000E000BF7B68012283F83D207B680022CD
:10258C0083F83C20FB7B18461037BD4680BD80B4D9
:10259C0083B000AF786000BF0C37BD4680BC70477D
:1025AC0080B483B000AF786000BF0C37BD4680BCF0
:1025BC00704780B483B000AF786000BF0C37BD4665
:1025CC0080BC704780B483B000AF786000BF0C371C
:1025DC00BD4680BC7047000080B485B000AF786009
:1025EC0039607B681B68FB607B68294A93420BD07F
:1025FC007B68B3F1804F07D07B68264A934203D0A7
:10260C007B68254A934208D1FB6823F07003FB607A
:10261C003B685B68FA681343FB607B681C4A934217
:10262C000BD07B68B3F1804F07D07B68194A93427B
:10263C0003D07B68184A934208D1FB6823F440739B
:10264C00FB603B68DB68FA681343FB60FB6823F0B4
:10265C0080023B685B691343FB607B68FA681A6015
:10266C003B689A687B68DA623B681A687B689A6296
:10267C007B68074A934203D13B681A697B681A63EB
:10268C007B6801225A6100BF1437BD4680BC70477D
:10269C00002C0140000400400008004080B487B0CA
:1026AC0000AFF860B9607A60FB681B6A7B61FB68FD
:1026BC001B6A23F00102FB681A62FB689B693B6191
:1026CC003B6923F0F0033B617B681B013A691343C0
:1026DC003B617B6923F00A037B617A69BB68134316
:1026EC007B61FB683A699A61FB687A691A6200BF80
:1026FC001C37BD4680BC704780B487B000AFF86013
:10270C00B9607A60FB681B6A7B61FB681B6A23F00B
:10271C001002FB681A62FB689B693B613B6923F4FE
:10272C0070433B617B681B033A6913433B617B69D4
:10273C0023F0A0037B61BB681B017A6913437B61A7
:10274C00FB683A699A61FB687A691A6200BF1C37A8
:10275C00BD4680BC704780B485B000AF78603960EE
:10276C007B689B68FB60FB6823F07003FB603A6836
:10277C00FB68134343F00703FB607B68FA689A60BD
:10278C0000BF1437BD4680BC704780B487B000AF23
:10279C00F860B9607A603B60FB689B687B617B6921
:1027AC0023F47F437B613B681A027B681A43BB6846
:1027BC0013437A6913437B61FB687A699A6000BFA3
:1027CC001C37BD4680BC704780B485B000AF7860C4
:1027DC0039607B6893F83C30012B01D1022346E031
:1027EC007B68012283F83C207B68022283F83D2021
:1027FC007B681B685B68FB607B681B689B68BB60C5
:10280C00FB6823F07003FB603B681B68FA6813439A
:10281C00FB607B681B68FA685A607B681B68164A09
:10282C0093420ED07B681B68B3F1804F09D07B6854
:10283C001B68124A934204D07B681B68104A93426F
:10284C000CD1BB6823F08003BB603B685B68BA6843
:10285C001343BB607B681B68BA689A607B68012273
:10286C0083F83D207B68002283F83C200023184627
:10287C001437BD4680BC7047002C0140000400405A
:10288C000008004080B483B000AF786000BF0C3704
:10289C00BD4680BC704780B483B000AF786000BF89
:1028AC000C37BD4680BC704780B582B000AF7860F5
:1028BC007B68002B01D1012342E07B6893F8413007
:1028CC00DBB2002B06D17B68002283F840207868AD
:1028DC00FEF7BAFB7B68242283F841207B681B68D7
:1028EC00DA687B681B6822F40052DA60786800F0C2
:1028FC001DF97B681B681A697B681B6822F490427F
:10290C001A617B681B685A697B681B6822F02A0273
:10291C005A617B681B68DA687B681B6842F400525A
:10292C00DA607B6800225A647B68202283F841209D
:10293C007B68202283F842207B6800225A630023A4
:10294C0018460837BD4680BD80B58AB002AFF86026
:10295C00B9603B601346FB8000237B61FB6893F8F6
:10296C004130DBB2202B6DD1BB68002B02D0FB8831
:10297C00002B01D1012366E0FB6800225A64FB683E
:10298C00212283F84120FEF79FFC7861FB68FA88CE
:10299C009A84FB68FA88DA84FB689B68B3F5805FDD
:1029AC0008D1FB681B69002B04D10023FB61BB68B9
:1029BC00BB6103E0BB68FB610023BB612AE03B68A1
:1029CC0000937B6900228021F86800F040F80346F0
:1029DC00002B01D0032336E0FB69002B0BD1BB6924
:1029EC001B881A46FB681B68C2F308025A60BB6955
:1029FC000233BB6107E0FB691A78FB681B685A60FD
:102A0C00FB690133FB61FB68DB8C9BB2013B9AB227
:102A1C00FB68DA84FB68DB8C9BB2002BCFD13B6864
:102A2C0000937B6900224021F86800F010F80346FF
:102A3C00002B01D0032306E0FB68202283F8412001
:102A4C00002300E0022318462037BD4680BD80B528
:102A5C0090B000AFF860B9603B601346FB7150E07A
:102A6C00BB6CB3F1FF3F4CD0BB6C002B07D0FEF717
:102A7C002BFC02463B68D31ABA6C9A4241D2FB68D3
:102A8C001B680C33BB62BB6A53E8003F7B627B6AFA
:102A9C0023F4D073FB63FB681B680C33FA6B7A630B
:102AAC003B63396B7A6B41E80023FB62FB6A002BBA
:102ABC00E5D1FB681B6814337B617B6953E8003FED
:102ACC003B613B6923F00103BB63FB681B68143358
:102ADC00BA6B3A62FB61F9693A6A41E80023BB615F
:102AEC00BB69002BE5D1FB68202283F84120FB68F1
:102AFC00202283F84220FB68002283F84020032325
:102B0C000FE0FB681B681A68BB681340BA689A42EE
:102B1C000CBF01230023DBB21A46FB799A429FD0EB
:102B2C00002318464037BD4680BD000080B584B0F8
:102B3C0000AF78607B681B681B6923F440517B688D
:102B4C00DA687B681B680A431A617B689A687B6841
:102B5C001B691A437B685B691343BB607B681B680A
:102B6C00DB6823F4B05323F00C037A681268B9685D
:102B7C000B43D3607B681B685B6923F440717B68F3
:102B8C009A697B681B680A435A617B681B682C4AEC
:102B9C00934203D1FFF758FAF86002E0FFF740FACE
:102BAC00F860FA6813469B0013449A001A447B6839
:102BBC005B689B00B2FBF3F3224AA2FB03235B0985
:102BCC001901FA6813469B0013449A001A447B6857
:102BDC005B689B00B2FBF3F21A4BA3FB02035B098D
:102BEC00642000FB03F3D31A1B013233154AA2FBFA
:102BFC0003235B0903F0F0031944FA6813469B00A6
:102C0C0013449A001A447B685B689B00B2FBF3F296
:102C1C000C4BA3FB02035B09642000FB03F3D31AE8
:102C2C001B013233074AA2FB03235B0903F00F029B
:102C3C007B681B680A449A6000BF1037BD4680BD94
:102C4C00003801401F85EB51014B1868704700BFDD
:102C5C003400002070B500260C4D0D4C641BA410E4
:102C6C00A64209D100F05CFC00260A4D0A4C641BFC
:102C7C00A410A64205D170BD55F8043B9847013607
:102C8C00EEE755F8043B98470136F2E7B4350008F7
:102C9C00B4350008B4350008B835000803460244C2
:102CAC00934200D1704703F8011BF9E70EB46FF0A3
:102CBC00004100B59CB01DAB0290069007910491A9
:102CCC000848094953F8042B0591006802A901939F
:102CDC0000F068F80022029B1A701CB05DF804EB3F
:102CEC0003B07047340000200802FFFF2DE9F047C5
:102CFC008E6882469E420C4690461F4638D88A897A
:102D0C0012F4906F32D0256809690133A5EB0109E3
:102D1C0065694B4405EB450505EBD5756D109D427A
:102D2C0038BF1D46530531D5294600F053FB0646E6
:102D3C0050B90C234FF0FF30CAF80030A38943F090
:102D4C004003A381BDE8F0874A46216900F0CEFA22
:102D5C00A38923F4906343F08003A38126614E443E
:102D6C0026603E466561A5EB0905A560BE4200D90B
:102D7C003E4632464146206800F0C6FAA3682268F7
:102D8C009B1B32440020A3602260DBE72A4600F044
:102D9C007BFB06460028E1D15046216900F0CEFAB3
:102DAC00C7E700002DE9F04F98468B8907461B06B4
:102DBC000D4614469DB00ED50B6963B9402100F049
:102DCC0009FB2860286120B90C233B604FF0FF30D1
:102DDC00D1E040236B610023099320238DF8293027
:102DEC0030234FF00109CDF80C80DFF8A4818DF869
:102DFC002A3023469A4613F8012B0AB1252AF9D119
:102E0C00BAEB040B0BD05B46224629463846FFF73B
:102E1C006DFF013000F0AA80099A5A4409929AF881
:102E2C000030002B00F0A28000234FF0FF32CDE9E0
:102E3C0005230AF1010A049307938DF853301A9372
:102E4C005446052214F8011B514800F041FA049A2B
:102E5C00D8B9D00644BF20238DF85330110744BF96
:102E6C002B238DF853309AF800302A2B15D054466A
:102E7C0000204FF00A0C079A214611F8013B303B19
:102E8C00092B4ED9B0B1079214E0A0EB080309FA54
:102E9C0003F31343A2460493D2E7039B191D1B684B
:102EAC000391002BBBBF5B4242F0020207930793D6
:102EBC00B8BF049223782E2B0CD163782A2B35D1F2
:102ECC00039B02341A1D1B680392002BB8BF4FF0F2
:102EDC00FF330593DFF8C8A003225046217800F099
:102EEC00F7F940B14023A0EB0A0003FA00F0049B71
:102EFC0001340343049314F8011B062225488DF872
:102F0C00281000F0E5F9002838D0234B1BBB039B9D
:102F1C00073323F0070308330393099B33440993C6
:102F2C0067E70C4601200CFB0232A5E700234FF0AB
:102F3C000A0C194601340593204610F8012B303A3F
:102F4C00092A03D9002BC5D00591C3E704460123F8
:102F5C000CFB0121F0E703AB00932A4638460F4BDC
:102F6C0004A9AFF30080421C0646D6D1AB895B06A0
:102F7C003FF52CAF09981DB0BDE8F08F03AB009363
:102F8C002A463846054B04A900F07CF8EBE700BF55
:102F9C007E3500088835000800000000F92C000878
:102FAC00843500082DE9F047164699468A680B6966
:102FBC0007469342B8BF1346336091F843200C4642
:102FCC00DDF820800AB1013333602368990642BFD3
:102FDC00336802333360256815F0060506D104F119
:102FEC00190AE36832689B1AAB4228DC94F8432038
:102FFC00131E226818BF012392062DD44946384669
:10300C0004F14302C047013020D02368E56803F087
:10301C000603042B18BF002532684FF00006A36886
:10302C0008BFAD1A226908BF25EAE5759342C4BFF3
:10303C009B1AED181A34B5421AD1002008E001236E
:10304C00524649463846C047013003D14FF0FF3055
:10305C00BDE8F0870135C4E73020E11881F8430062
:10306C005A1C94F845102244023382F84310C5E7E9
:10307C000123224649463846C0470130E6D0013686
:10308C00D9E700002DE9FF470C46277E9146782FA3
:10309C0080469A460C9904F1430207D8622F0AD84D
:1030AC00002F00F0D980582F00F0A48004F14206C4
:1030BC0084F842703AE0A7F16303152BF6D801A00F
:1030CC0050F823F0293100083D310008B9300008D0
:1030DC00B9300008B9300008B93000083D3100089B
:1030EC00B9300008B9300008B9300008B930000810
:1030FC004B3200086D3100082D320008B930000841
:10310C00B93000086D320008B93000086D31000884
:10311C00B9300008B9300008353200080B6804F1EA
:10312C0042061A1D1B680A6084F842300123A4E091
:10313C00256808682E0600F104030AD505680B60A3
:10314C00002D03DA2D236D4284F843300A235E48A8
:10315C0019E015F0400F05680B6018BF2DB2EFE7B2
:10316C000B682568181D0860280601D51D6802E04B
:10317C006906FBD51D886F2F0CBF08230A23524804
:10318C00002184F843106668002EA8BF2168A66051
:10319C00A4BF21F0040121600DB9002E4DD01646BC
:1031AC00B5FBF3F103FB1157C75D06F8017D2F4604
:1031BC00BB420D46F4D9082B0BD12368DF0708D589
:1031CC00236961689942DEBF302306F8013C06F1A1
:1031DC00FF36921B22614B4621464046CDF800A09B
:1031EC0003AAFFF7DFFE01304CD14FF0FF3004B0E3
:1031FC00BDE8F087344884F845700E68236856F8AB
:10320C00045B1F060E6014D5D90744BF43F020039E
:10321C0023601DB9236823F0200323601023AFE73C
:10322C00236843F0200323607823284884F8453032
:10323C00E3E75E0648BFADB2E6E71646BBE70B68B0
:10324C0026681D1D60690D6035061B6801D5186068
:10325C0002E07106FBD51880002316462361BAE7FD
:10326C000B681A1D0A601E6800213046626800F067
:10327C002FF808B1801B606063682361002384F819
:10328C004330A8E73246494640462369D0470130CF
:10329C00ABD023689B0713D4E068039B9842B8BF5C
:1032AC001846A4E70123324649464046D047013030
:1032BC009BD00135E36803995B1AAB42F2DCEBE778
:1032CC00002504F11906F5E78F350008A035000834
:1032DC00034610B5C9B202449342184601D10020EE
:1032EC0003E0047801338C42F6D110BD0A449142BC
:1032FC0000F1FF3300D1704710B511F8014B91422A
:10330C0003F8014FF9D110BD884210B501EB02044E
:10331C0002D98442234607D8431EA14208D011F893
:10332C00012B03F8012FF8E7014602448A4200D131
:10333C0010BD13F8014D02F8014DF7E738B50546FD
:10334C00002943D051F8043C0C1F002BB8BFE418E3
:10335C0000F0D0F81E4A1368104633B9636014604D
:10336C002846BDE8384000F0CBB8A3420AD9216802
:10337C006218934201BF1A685B685218226063603E
:10338C000460EDE71A465B680BB1A342FAD91168E9
:10339C005018A0420BD12068014450188342116090
:1033AC00DED118685B68014411605360D8E702D91C
:1033BC000C232B60D4E7206821188B4201BF1968BD
:1033CC005B680918216063605460C9E738BD00BFB1
:1033DC0070010020F8B5CD1C25F0030508350C2D27
:1033EC0038BF0C25002D064601DBA94203D90C235E
:1033FC0033600020F8BD00F07DF821490A681446BE
:10340C009CB9204F3B6823B92146304600F062F846
:10341C0038602946304600F05DF8431C23D10C235C
:10342C003046336000F06CF8E3E723685B1B17D47D
:10343C000B2B03D923601C44256004E06368A24273
:10344C000CBF0B605360304600F05AF804F10B00CF
:10345C00231D20F00700C21ACCD01B1AA350C9E7B9
:10346C0022466468CCE7C41C24F00304A042E3D0D9
:10347C00211A304600F02EF80130DDD1CFE700BF25
:10348C007001002074010020F8B5074614460E4662
:10349C0021B91146BDE8F840FFF79CBF22B9FFF7F0
:1034AC004DFF25462846F8BD00F030F8A0420FD25B
:1034BC0021463846FFF78EFF05460028F2D03146EC
:1034CC002246FFF713FF31463846FFF737FFE9E78F
:1034DC003546E7E738B50023054D044608462B6012
:1034EC00FDF738FE431C02D12B6803B1236038BDB5
:1034FC008C020020014800F011B800BF940200209B
:10350C00014800F00CB800BF9402002051F8043CB4
:10351C00181F002BBCBF0B58C01870477047704762
:10352C00F8B500BFF8BC08BC9E467047F8B500BFA4
:08353C00F8BC08BC9E46704774
:103544002137534547313D25752575230D0A000064
:10355400000000000000000001020304060708093F
:103564000000000001020304020304050607080921
:103574000A0B0C0D0E0F10100102232D302B20000E
:10358400686C4C0065666745464700303132333419
:1035940035363738394142434445460030313233B9
:1035A400343536373839616263646566000000007B
:0435B40031010008D9
:0435B8000D010008F9
:1035BC0005000000020000000300000000080140AC
:1035CC0000080140000C01400008014002001000FE
:1035DC00010001000A0000000024F40010000000AB
:1035EC000100000038000020000000000000000076
:1035FC0000000000000000000000000000000000BF
:10360C0000000000000000000000000000000000AE
:10361C00000000000000000000000000000000009E
:10362C00000000000000000000000000000000008E
:10363C00000000000000000000000000000000007E
:08364C00000000000000000076
:04000005080011D905
:00000001FF
