:020000040800F2
:1000000000500020911A0008F1170008F7170008A7
:10001000FD17000803180008091800080000000078
:100020000000000000000000000000000F180008A1
:100030001B180008000000002718000833180008EB
:10004000D91A0008D91A0008D91A0008D91A0008C4
:10005000D91A0008D91A0008D91A0008D91A0008B4
:10006000D91A0008D91A0008D91A0008D91A0008A4
:10007000D91A0008D91A0008D91A0008D91A000894
:10008000D91A0008D91A0008D91A0008D91A000884
:10009000D91A0008D91A0008D91A0008D91A000874
:1000A000D91A0008D91A0008D91A0008D91A000864
:1000B0004118000855180008D91A0008D91A000874
:1000C000D91A0008D91A0008D91A0008D91A000844
:1000D000D91A0008D91A0008D91A0008D91A000834
:1000E000D91A0008D91A0008D91A0008000000001F
:1000F0000000000000000000000000000000000000
:0C01000000000000000000005FF808F1A3
:10010C0010B5054C237833B9044B13B10448AFF345
:10011C0000800123237010BD980000200000000017
:10012C00D444000808B5034B1BB103490348AFF393
:10013C00008008BD000000009C000020D444000892
:10014C0082B080B582B000AF7860396007F11001E1
:10015C0081E80C003B687A680849094803F030FED6
:10016C0064233222064907F1100003F0B1FB00BFF3
:10017C000837BD46BDE8804002B07047EC4400082B
:10018C007401002080B500AF042001F0C1F90346D2
:10019C00002B1ED0104B1B68C3F103030F4A52F8FF
:1001AC0023301946042001F0D1F90D4B1B68C3F51F
:1001BC00FA730B4A13600A4B1A680A4B1B68DA6213
:1001CC00074B1B681A46074BDA60064B1B683C2230
:1001DC005A6300BF80BD00BFD00000200845000856
:1001EC00B4000020A801002080B400AF0B4B00220B
:1001FC001A600B4B00221A60084B1A68094B1B68DB
:10020C00DA62064B1B681A46064BDA60054B1B6814
:10021C0000225A6300BFBD4680BC7047B40000206A
:10022C00B8000020A801002080B582B000AF786033
:10023C007B68002B18D07B68002BC0F283807B6816
:10024C00362B7FDC7B68332B7CDB7B68333B032BCF
:10025C0078D801A252F823F0F9020008250300080F
:10026C00A1020008CD02000800224FF4806138483A
:10027C0001F039FF00220821364801F034FF00223A
:10028C002021344801F02FFF00221021314801F0C9
:10029C002AFF58E001224FF480612D4801F023FF22
:1002AC00002208212B4801F01EFF002220212948A2
:1002BC0001F019FF01221021264801F014FF42E041
:1002CC0001224FF48061224801F00DFF0022082129
:1002DC00204801F008FF012220211E4801F003FFF5
:1002EC00012210211B4801F0FEFE2CE000224FF4ED
:1002FC008061174801F0F7FE01220821154801F032
:10030C00F2FE01222021134801F0EDFE0022102103
:10031C00104801F0E8FE16E001224FF480610C4811
:10032C0001F0E1FE012208210A4801F0DCFE012265
:10033C002021084801F0D7FE00221021054801F0C9
:10034C00D2FE00E000BF00BF0837BD4680BD00BF35
:10035C0000080140000C014080B582B000AF78600D
:10036C007B68212B55D07B68212B66DC7B68002BAE
:10037C0003D07B681F2B16D05FE000224FF4806106
:10038C00304801F0B0FE002208212F4801F0ABFEEE
:10039C00002220212C4801F0A6FE002210212A4820
:1003AC0001F0A1FE4AE0294B1B68002B18D1012259
:1003BC004FF48061234801F096FE01220821224867
:1003CC0001F091FE012220211F4801F08CFE012238
:1003DC0010211D4801F087FE1C4B01221A602DE0F4
:1003EC0000224FF48061174801F07DFE00220821A5
:1003FC00154801F078FE00222021134801F073FE0D
:10040C0000221021104801F06EFE104B00221A60E1
:10041C0014E008210C4801F07EFE00224FF48061AC
:10042C00084801F060FE1021074801F074FE00221C
:10043C002021054801F057FE00E000BF00BF08373F
:10044C00BD4680BD00080140000C0140BC000020EE
:10045C0080B582B000AF78607B682B2B23D07B6893
:10046C002B2B2DDC7B68292B03D07B682A2B0DD002
:10047C0026E000224FF48061144801F034FE002283
:10048C004FF48071124801F02EFE1AE000224FF456
:10049C0080610E4801F027FE01224FF480710C4858
:1004AC0001F021FE0DE001224FF48061074801F0BC
:1004BC001AFE00224FF48071054801F014FE00E092
:1004CC0000BF00BF0837BD4680BD00BF000C014017
:1004DC000008014080B582B000AF78607B68333B88
:1004EC00032B65D801A252F823F000BF09050008C0
:1004FC003705000863050008910500082F4B1B68A1
:10050C002F4A13602F4B1B682F4A13602F4B33223B
:10051C001A604FF47A71002001F018F82C4B1B680C
:10052C001946042001F012F843E0264B1A68234BBD
:10053C001B68D31A224A1360244B34221A604FF4DE
:10054C007A71002001F002F8214B1B681946042037
:10055C0000F0FCFF2DE01B4B1B68194A1360174B76
:10056C001B68194A1360194B35221A604FF47A71C3
:10057C00002000F0EBFF164B1B681946042000F01E
:10058C00E5FF16E00F4B1A680C4B1B68D31A0E4A8A
:10059C0013600E4B36221A604FF47A71002000F073
:1005AC00D5FF0B4B1B681946042000F0CFFF00E071
:1005BC0000BF00BF0837BD4680BD00BF080000204B
:1005CC00D000002000000020D4000020700100208A
:1005DC0024000020F0B593B010AF444B1B68333BA4
:1005EC00032B47D801A252F823F000BF45060008A0
:1005FC006306000809060008270600083520FFF7E7
:10060C0013FE3B4B1B68002B03DD3A4B1B68002B86
:10061C0032DC3620FFF75EFF2EE03620FFF704FEBB
:10062C00334B1B68002B03DD324B1B68002B25DC86
:10063C003320FFF74FFF21E03320FFF7F5FD2C4B64
:10064C001B68002B03DD2B4B1B68002B18DC3420A4
:10065C00FFF740FF14E03420FFF7E6FD244B1B6846
:10066C00002B03DD234B1B68002B0BDC3520FFF725
:10067C0031FF07E000BF06E000BF04E000BF02E06E
:10068C0000BF00E000BF002000F042FF0346012B3A
:10069C0028D1174B1B68013B154A1360154B1B687F
:1006AC00013B144A1360124B1B687B60114B1A6898
:1006BC003A60114E6D4606F108040FCC0FC50FCCF5
:1006CC000FC50FCC0FC594E80F0085E80F0096E816
:1006DC000C0039687868FFF733FD4FF47A7100200D
:1006EC0000F034FF00BF0C37BD46F0BD7001002098
:1006FC00D0000020D40000203802002080B500AFCC
:10070C003B4B1B68032B70D801A252F823F000BF9F
:10071C002D0700084F0700086F070008BF070008E7
:10072C00FFF7D8FE0020FFF77FFD324B29221A601D
:10073C0000F02EFF3520FFF7CDFE2D4B01221A6065
:10074C0053E0FFF747FF00F0ADF8002000F08CFA03
:10075C000346012B44D100F01BFF254B02221A60EB
:10076C003EE000F04DF8002000F07EFA0346012B2D
:10077C0010D100F00DFF0020FFF7EEFD4FF4FA71E1
:10078C00032000F0E3FE1A4B03221A601A4B1F22BF
:10079C001A6027E0022000F067FA0346012B21D1F2
:1007AC00134B01221A60154B1B681846FFF792FE7B
:1007BC0018E0114B1B68184600F012F9002000F0ED
:1007CC0053FA0346012B0FD10B4B1B681F2B03D184
:1007DC00094B21221A6007E0054B00221A6003E046
:1007EC0000BF02E000BF00E000BF00BF80BD00BF43
:1007FC00C4000020C8000020CC00002070010020A4
:10080C0080B500AF264B1B68333B032B45D801A2A8
:10081C0052F823F0310800084B080008650800085E
:10082C007F0800083320FFF7FFFC012000F01CFAC2
:10083C000346002B2AD01A4B34221A6026E03420AF
:10084C00FFF7F2FC012000F00FFA0346002B1FD03B
:10085C00134B35221A601BE03520FFF7E5FC012015
:10086C0000F002FA0346002B14D00D4B36221A600E
:10087C0010E03620FFF7D8FC012000F0F5F9034614
:10088C00002B09D0064B33221A6005E000BF04E0B0
:10089C0000BF02E000BF00E000BF00BF80BD00BF92
:1008AC007001002080B500AF474B1B682B2B33D059
:1008BC002B2B00F38680292B02D02A2B52D080E0E0
:1008CC00FFF792FC2920FFF7C3FD404B1A68404B01
:1008DC001B6813443F4A1360032000F0C5F903461C
:1008EC00012B69D13B4B1B684FF47A7202FB03F36B
:1008FC001946012000F02AFE374B1B68352B03D01C
:10090C00354B1B68362B03D12F4B2B221A6053E02F
:10091C002D4B2A221A604FE0FFF766FC2B20FFF7C5
:10092C0097FD2D4B1B68332B03D02B4B1B68342BA3
:10093C0002D1254B2A221A60012000F0E9FD034662
:10094C00012B02D1204B29221A60032000F08CF9D4
:10095C000346012B32D11F4B1B681946012000F0B6
:10096C00F5FD2BE02A20FFF773FD1C4B1B68032BB6
:10097C0001DCFFF707FC184B1B68352B03D0164B1B
:10098C001B68362B02D1104B2B221A60012000F071
:10099C00BFFD0346012B02D10B4B29221A60032009
:1009AC0000F062F90346012B0AD10A4B1B68194669
:1009BC00012000F0CBFD03E000BF02E000BF00E02F
:1009CC0000BF00BF80BD00BFC80000200000002099
:1009DC0008000020C000002070010020D000002082
:1009EC00F0B595B010AFF860FB681F3B032B00F21D
:1009FC00258101A252F823F0150A00088D0A00087F
:100A0C00310B0008A70B0008032000F081FD034602
:100A1C00012B07D14FF4FA71032000F097FD1F2032
:100A2C00FFF79AFC012000F01FF90346002B00F0A1
:100A3C0007812023FB60884B1B680133864A1360B7
:100A4C00864B1B680133854A1360834B1B68BB6064
:100A5C00814B1A687A60824E6D4606F108040FCC01
:100A6C000FC50FCC0FC50FCC0FC594E80F0085E850
:100A7C000F0096E80C007968B868FFF761FBDFE0BF
:100A8C00032000F045FD0346012B07D14FF4FA710A
:100A9C00032000F05BFD1F20FFF75EFC012000F03F
:100AAC00E3F80346002B33D02023FB606A4B1B6812
:100ABC000133694A1360694B1B680133674A136041
:100ACC00654B1B68642B09D1634B01221A60624B86
:100ADC001A68644B1B681344604A13605E4B1B68B6
:100AEC00BB605D4B1A687A605D4E6D4606F108047A
:100AFC000FCC0FC50FCC0FC50FCC0FC594E80F0052
:100B0C0085E80F0096E80C007968B868FFF718FBC9
:100B1C00022000F0A9F80346002B00F093801F235D
:100B2C00FB608FE0032000F0F3FC0346012B07D1A0
:100B3C004FF4FA71032000F009FD2120FFF70CFCA3
:100B4C00012000F091F80346002B7DD02223FB609E
:100B5C00444B1B680133434A1360404B1B68013301
:100B6C003E4A13603F4B1B68BB603E4B1A687A6071
:100B7C003B4E6D4606F108040FCC0FC50FCC0FC5CC
:100B8C000FCC0FC594E80F0085E80F0096E80C0019
:100B9C007968B868FFF7D4FA56E0032000F0B8FC87
:100BAC000346012B07D14FF4FA71032000F0CEFC61
:100BBC001F20FFF7D1FB012000F056F80346002B55
:100BCC0033D02023FB60244B1B680133224A136073
:100BDC00224B1B680133214A13601F4B1B68642B8B
:100BEC0009D11D4B01221A601B4B1A681D4B1B6847
:100BFC0013441A4A13601B4B1B68BB60194B1A68D1
:100C0C007A60174E6D4606F108040FCC0FC50FCC59
:100C1C000FC50FCC0FC594E80F0085E80F0096E8C0
:100C2C000C007968B868FFF78BFA022000F01CF80A
:100C3C000346002B0AD02123FB6007E000BF06E02F
:100C4C0000BF04E000BF02E000BF00E000BF00BF37
:100C5C001437BD46F0BD00BF04000020000000208A
:100C6C00380200200800002080B483B000AF786008
:100C7C007B68032B01DD00230DE0094A7B6852F8E9
:100C8C002330012B06D1064A7B68002142F8231041
:100C9C00012300E0002318460C37BD4680BC70478A
:100CAC002801002080B483B000AF7860044A7B68D0
:100CBC00012142F8231000BF0C37BD4680BC7047A1
:100CCC002801002080B582B000AF00237B6058E083
:100CDC00304A7B6852F823202F497B6841F8232047
:100CEC002E4A7B6852F823202A497B6841F823203E
:100CFC002B4A7B6852F823202A497B6831F8133041
:100D0C001946104601F0D8F903461946234A7B6868
:100D1C0042F823101F4A7B6852F823201F497B6836
:100D2C0051F823309A4229D11A4A7B6852F8232071
:100D3C0019497B6851F823309A421FD1164A7B68B7
:100D4C0052F8232018497B6851F823309A4215D069
:100D5C00114A7B6852F8232013497B6841F8232001
:100D6C00114A7B6852F82330002B07D10F4A7B685D
:100D7C00642142F823107868FFF794FF7B680133F5
:100D8C007B607B68032BA3DD00BF00BF0837BD462B
:100D9C0080BD00BFE8000020F8000020D800002033
:100DAC000C0000201C00002008010020180100206D
:100DBC0080B500AF00F08CFE00F0D8F900F02CF8F4
:100DCC0000F052F900F064F800F0AEF800F022F9EF
:100DDC000C4801F017FE00210B4801F0BDFE0A2261
:100DEC0000210A4800F0FEF90A220A21084800F006
:100DFC00F9F90A220A21074800F0F4F900F04CFB3B
:100E0C00FCE700BFF0010020A8010020D11500086C
:100E1C00D10C00080907000880B590B000AF07F1AD
:100E2C00180328220021184602F00CFF3B1D00225B
:100E3C001A605A609A60DA601A610223BB6101235E
:100E4C00BB621023FB6200237B6307F11803184677
:100E5C0001F07AF90346002B01D000F082F90F2340
:100E6C007B600023BB600023FB6000233B610023FD
:100E7C007B613B1D0021184601F0E6FB0346002B6D
:100E8C0001D000F06EF900BF4037BD4680BD0000B8
:100E9C0080B586B000AF07F1080300221A605A60D3
:100EAC009A60DA603B4600221A605A601D4B4FF084
:100EBC0080421A601B4B3F225A601A4B00229A60E8
:100ECC00184B40F2E732DA60164B00221A61154BD0
:100EDC0000229A61134801F045FD0346002B01D016
:100EEC0000F03FF94FF48053BB6007F1080319463B
:100EFC000C4802F09DF80346002B01D000F031F9AC
:100F0C0000233B6000237B603B461946054802F0FA
:100F1C001FFC0346002B01D000F023F900BF18374B
:100F2C00BD4680BDF001002080B58EB000AF07F14A
:100F3C00280300221A605A609A60DA6007F12003D5
:100F4C0000221A605A603B1D00221A605A609A6097
:100F5C00DA601A615A619A612C4B2D4A1A602B4B3C
:100F6C003F225A60294B00229A60284B0922DA60F2
:100F7C00264B00221A61254B00229A61234801F06E
:100F8C00F1FC0346002B01D000F0EBF84FF480533A
:100F9C00BB6207F1280319461C4802F049F80346C6
:100FAC00002B01D000F0DDF8184801F07DFD034660
:100FBC00002B01D000F0D5F800233B6200237B62AC
:100FCC0007F120031946114802F0C2FB0346002B1F
:100FDC0001D000F0C6F860237B600023BB600023C7
:100FEC00FB6000237B613B1D00221946074801F082
:100FFC005DFF0346002B01D000F0B3F8034800F06E
:10100C0075FB00BF3837BD4680BD00BFA80100206E
:10101C000004004080B500AF114B124A1A60104B0F
:10102C004FF4E1325A600E4B00229A600C4B0022B6
:10103C00DA600B4B00221A61094B0C225A61084BE7
:10104C0000229A61064B0022DA61054802F0F0FB9F
:10105C000346002B01D000F084F800BF80BD00BF18
:10106C00380200200044004080B586B000AF07F184
:10107C00080300221A605A609A60DA602E4B9B6952
:10108C002D4A43F0040393612B4B9B6903F004033B
:10109C007B607B68284B9B69274A43F0080393616C
:1010AC00254B9B6903F008033B603B6800224FF41F
:1010BC008761224801F017F800224FF4A061204804
:1010CC0001F011F81323BB600023FB6000233B618C
:1010DC0007F1080319461A4800F06AFE0123BB60A9
:1010EC000023FB6000233B6107F1080319461348FA
:1010FC0000F05EFE4FF48763BB600123FB600023AE
:10110C003B6102237B6107F1080319460B4800F091
:10111C004FFE4FF4A063BB600123FB6000233B61D7
:10112C0002237B6107F108031946054800F040FED5
:10113C0000BF1837BD4680BD00100240000C0140B6
:10114C000008014080B582B000AF78607B681B68F6
:10115C00B3F1804F01D100F0C3F900BF0837BD4691
:10116C0080BD80B400AF72B600BFFEE780B483B020
:10117C0000AF00237B6029E019497A6813469B0075
:10118C0013449B000B4400221A6015497A681346DD
:10119C009B0013449B000B44043300221A6010493B
:1011AC007A6813469B0013449B000B4408330022BF
:1011BC001A600B497A6813469B0013449B000B443E
:1011CC000C3300221A707B6801337B607B68272B01
:1011DC00D2D900BF00BF0C37BD4680BC704700BFE2
:1011EC0080020020B0B489B000AFF860B9607A60BA
:1011FC006E4B1B68272B01D12823D2E00023FB77F1
:10120C000023BB61BB686A4AA2FB0323DB08BB60FB
:10121C000023BB6146E06749BA6913469B0013443F
:10122C009B000B4404331B68BA689A420CD9614981
:10123C00BA6913469B0013449B000B4404331B6890
:10124C00BA68D31ABB602AE00123FB775949BA6903
:10125C0013469B0013449B000B4404331A68BB6871
:10126C00D11A5448BA6913469B0013449B0003449B
:10127C00043319604F49BA6913469B0013449B0011
:10128C000B4404331B68002B09D14A49BA69134635
:10129C009B0013449B000B440C3301221A70BB6956
:1012AC000133BB61414B1B68BA699A4202D2FB7F86
:1012BC00002BB0D0FB7F012B35D1BB69013BBB614F
:1012CC003A4B1B687B612AE07B695A1E3948796965
:1012DC000B469B000B449B001844364913469B005D
:1012EC0013449B000B4404461D460FCD0FC42B68C2
:1012FC00236030497A6913469B0013449B000B44CE
:10130C0010331B68591C2B487A6913469B001344F5
:10131C009B000344103319607B69013B7B617A6944
:10132C00BB699A42D0D82349BA6913469B0013442F
:10133C009B000B44FA681A601E49BA6913469B005D
:10134C0013449B000B440433BA681A601949BA69F8
:10135C0013469B0013449B000B4408337A681A60B5
:10136C00BB68002B0CBF01230023DBB218461149CC
:10137C00BA6913469B0013449B000B440C33024682
:10138C001A700C49BA6913469B0013449B000B441A
:10139C001033BA691A60054B1B680133034A13609A
:1013AC00BB6918462437BD46B0BC704738010020D5
:1013BC00CDCCCCCC80020020B0B485B000AF78602E
:1013CC0033497A6813469B0013449B000B441B68FB
:1013DC00002B57D07B685A1C2D4913469B00134495
:1013EC009B000B440433196829487A6813469B0008
:1013FC0013449B00034404331B687A68013219447C
:10140C00234813469B0013449B0003440433196088
:10141C007B68FB602AE0FB685A1C1D48F9680B4688
:10142C009B000B449B001844194913469B00134422
:10143C009B000B4404461D460FCD0FC42B68236044
:10144C001349FA6813469B0013449B000B4410335A
:10145C001B68591E0E48FA6813469B0013449B00E8
:10146C00034410331960FB680133FB60094B1B68A4
:10147C00013BFA689A42CED3064B1B68013B054AE6
:10148C00136000E000BF1437BD46B0BC704700BF0E
:10149C008002002038010020B0B586B000AF0F4BA1
:1014AC001B7B012B15D10D4B1B6898470B4B3C1D1F
:1014BC001D460FCD0FC42B6823600020FFF77CFF67
:1014CC00FB68002B05D07B68F968FA681846FFF7B3
:1014DC0089FE00BF1837BD46B0BD00BF800200209A
:1014EC0080B400AF094B5B68002B04D0074B5B68E2
:1014FC00013B064A5360054B5B68002B02D1034B42
:10150C0001221A7300BFBD4680BC704780020020C8
:10151C0080B483B000AF78607B68082B01DD0023BA
:10152C000DE0094A7B6852F82330012B06D1064A9C
:10153C007B68002142F82310012300E000231846A9
:10154C000C37BD4680BC70473C01002080B582B092
:10155C0000AF7860396079680A4800F04FFA0A4B9E
:10156C001B683A6892FBF3F31A467968054800F059
:10157C00C9F9064A7B68002142F8231000BF0837DE
:10158C00BD4680BD60010020240000203C010020ED
:10159C0080B483B000AF00237B6007E0084A7B680F
:1015AC00002142F823107B6801337B607B68082B99
:1015BC00F4DD00BF00BF0C37BD4680BC704700BFD8
:1015CC003C01002080B500AF0D4B1B68002B15D0E3
:1015DC000B4B1B681B68002B05DD094B1B681A683D
:1015EC00013A1A600BE0064B1B685B68054A012147
:1015FC0042F82310024800F0DEF900E000BF80BD85
:10160C00600100203C01002080B485B000AF154B78
:10161C009B69144A43F001039361124B9B6903F0DD
:10162C000103BB60BB680F4BDB690E4A43F0805370
:10163C00D3610C4BDB6903F080537B607B680A4BF6
:10164C005B68FB60FB6823F0E063FB60FB6843F0C6
:10165C000073FB60044AFB68536000BF1437BD463F
:10166C0080BC7047001002400000014080B584B07F
:10167C0000AF78607B681B68B3F1804F14D1194BB5
:10168C00DB69184A43F00103D361164BDB6903F0A5
:10169C000103FB60FB68002200211C2000F051FBC1
:1016AC001C2000F06AFB18E07B681B680E4A934212
:1016BC0013D10C4BDB690B4A43F00203D361094B8A
:1016CC00DB6903F00203BB60BB68002200211D2014
:1016DC0000F037FB1D2000F050FB00BF1037BD465B
:1016EC0080BD00BF001002400004004080B588B0EF
:1016FC0000AF786007F1100300221A605A609A60FC
:10170C00DA607B681B680F4A934217D10E4B9B69BA
:10171C000D4A43F0040393610B4B9B6903F00403E4
:10172C00FB60FB6840233B6102237B610223FB616E
:10173C0007F110031946054800F03AFB00BF2037AB
:10174C00BD4680BD0004004000100240000801406E
:10175C0080B588B000AF786007F1100300221A60E2
:10176C005A609A60DA607B681B681B4A93422FD1DF
:10177C001A4BDB69194A43F40033D361174BDB690D
:10178C0003F40033FB60FB68144B9B69134A43F072
:10179C0004039361114B9B6903F00403BB60BB68AA
:1017AC0004233B6102237B610323FB6107F11003DC
:1017BC0019460B4800F0FCFA08233B6100237B61BF
:1017CC000023BB6107F110031946054800F0F0FA3D
:1017DC0000BF2037BD4680BD0044004000100240D1
:1017EC000008014080B400AFFEE780B400AFFEE714
:1017FC0080B400AFFEE780B400AFFEE780B400AF6A
:10180C00FEE780B400AF00BFBD4680BC704780B41B
:10181C0000AF00BFBD4680BC704780B400AF00BFB6
:10182C00BD4680BC704780B500AF00F097F900BF93
:10183C0080BD000080B500AF024801F02FFA00BF58
:10184C0080BD00BFF001002080B500AF024801F060
:10185C0025FA00BF80BD00BFA801002080B586B06E
:10186C0000AF7860144A154BD31A7B617B693B61DE
:10187C00134B1B68002B02D1114B124A1A60104BF0
:10188C001A687B6813443A699A4207D202F0A0F9AD
:10189C0003460C221A604FF0FF3309E0084B1B681B
:1018AC00FB60074B1A687B681344054A1360FB689E
:1018BC0018461837BD4680BD0050002000040000BB
:1018CC0064010020B805002080B400AF00BFBD4605
:1018DC0080BC704780B584B000AF786039600C2054
:1018EC0002F0A0F90346FB60FB687A685A60FB685B
:1018FC003A681A60FB6800229A60FB681846103739
:10190C00BD4680BD80B586B000AFF860B9607A6026
:10191C007968B868FFF7DEFF3861FB681B68002B3D
:10192C0003D1FB683A691A6042E0FB681B687B6173
:10193C003B691A687B691B689A420DDA7B691A68E5
:10194C003B691B68D21A7B691A603B697A699A6099
:10195C00FB683A691A602BE03B691A687B691B6863
:10196C00D21A3B691A6009E07B699B687B613B6911
:10197C001A687B691B68D21A3B691A607B699B6881
:10198C00002B06D03B691A687B699B681B689A42DE
:10199C00EADA7B699B68002B03D17B693A699A6010
:1019AC0006E07B699A683B699A607B693A699A6040
:1019BC001837BD4680BD80B584B000AF78607B68B9
:1019CC00002B17D07B681B68FB60FB689A687B68F0
:1019DC001A607B681B68002B08D07B681B68196831
:1019EC00FB681A687B681B680A441A60F86802F086
:1019FC0021F900E000BF1037BD4680BD80B584B032
:101A0C0000AF786039607B681B68FB60FB68002B5B
:101A1C0031D0FB685B683A689A4206D17868FFF768
:101A2C00CAFF2BE0FB689B68FB60FB689B68002B84
:101A3C0005D0FB689B685B683A689A42F2D1FB68F8
:101A4C009B68002B19D0FB689B68BB60BB689A68CD
:101A5C00FB689A60FB689B68002B08D0FB689B684E
:101A6C001968BB681A68FB689B680A441A60B868F6
:101A7C0002F0E0F802E000BF00E000BF1037BD4606
:101A8C0080BD0000FFF720FF0B480C490C4A0023D7
:101A9C0002E0D458C4500433C4188C42F9D3094A18
:101AAC00094C002301E013600432A242FBD302F084
:101ABC0095F8FFF77DF97047000000209800002092
:101ACC008445000898000020B4050020FEE70000C3
:101ADC0080B500AF084B1B68074A43F01003136036
:101AEC00032000F023F90F2000F008F8FFF78CFD1D
:101AFC000023184680BD00BF0020024080B582B094
:101B0C0000AF7860124B1A68124B1B7819464FF4D1
:101B1C007A73B3FBF1F3B2FBF3F3184600F03BF925
:101B2C000346002B01D001230EE07B680F2B0AD853
:101B3C00002279684FF0FF3000F003F9064A7B6809
:101B4C001360002300E0012318460837BD4680BD12
:101B5C0028000020300000202C00002080B400AFB2
:101B6C00054B1B781A46054B1B681344034A13603C
:101B7C0000BFBD4680BC704730000020A00500208F
:101B8C0080B400AF024B1B681846BD4680BC704742
:101B9C00A005002080B485B000AF78607B6803F0AE
:101BAC000703FB600C4BDB68BB60BA684FF6FF03A6
:101BBC001340BB60FB681A02BB68134343F0BF635E
:101BCC0043F40033BB60044ABB68D36000BF1437D6
:101BDC00BD4680BC704700BF00ED00E080B400AF94
:101BEC00044BDB681B0A03F007031846BD4680BC98
:101BFC00704700BF00ED00E080B483B000AF034637
:101C0C00FB7197F90730002B0BDBFB7903F01F02FC
:101C1C00064997F907305B09012000FA02F241F8F6
:101C2C00232000BF0C37BD4680BC704700E100E0AC
:101C3C0080B483B000AF03463960FB7197F907306D
:101C4C00002B0ADB3B68DAB20C4997F9073012011A
:101C5C00D2B20B4483F800230AE03B68DAB208499D
:101C6C00FB7903F00F03043B1201D2B20B441A763A
:101C7C0000BF0C37BD4680BC704700BF00E100E0E0
:101C8C0000ED00E080B489B000AFF860B9607A6014
:101C9C00FB6803F00703FB61FB69C3F10703042B2B
:101CAC0028BF0423BB61FB690433062B02D9FB69F3
:101CBC00033B00E000237B614FF0FF32BB6902FA6B
:101CCC0003F3DA43BB681A407B699A404FF0FF314B
:101CDC007B6901FA03F3D9437B680B401343184625
:101CEC002437BD4680BC704780B582B000AF7860A9
:101CFC007B68013BB3F1807F01D301230FE00A4ADB
:101D0C007B68013B53600F214FF0FF30FFF790FFD2
:101D1C00054B00229A60044B07221A6000231846D8
:101D2C000837BD4680BD00BF10E000E080B582B032
:101D3C0000AF78607868FFF72DFF00BF0837BD460D
:101D4C0080BD80B586B000AF0346B9607A60FB7386
:101D5C0000237B61FFF742FF78617A68B968786984
:101D6C00FFF790FF024697F90F3011461846FFF720
:101D7C005FFF00BF1837BD4680BD80B582B000AF95
:101D8C000346FB7197F907301846FFF735FF00BF84
:101D9C000837BD4680BD80B582B000AF78607868EA
:101DAC00FFF7A2FF034618460837BD4680BD00006A
:101DBC0080B48BB000AF7860396000237B62002365
:101DCC003B6269E101227B6A02FA03F3FB613B6827
:101DDC001B68FA691340BB61BA69FB699A4240F00F
:101DEC0058813B685B689A4A93425ED0984A93420A
:101DFC0075D8984A934258D0964A93426FD8964ACF
:101E0C00934252D0944A934269D8944A93424CD00C
:101E1C00924A934263D8924A934246D0904A934254
:101E2C005DD8122B2AD8122B59D801A252F823F0C4
:101E3C00B71E0008911E0008A31E0008E51E00082E
:101E4C00EB1E0008EB1E0008EB1E0008EB1E000842
:101E5C00EB1E0008EB1E0008EB1E0008EB1E000832
:101E6C00EB1E0008EB1E0008EB1E0008EB1E000822
:101E7C00EB1E0008991E0008AD1E0008794A93421B
:101E8C0013D02CE03B68DB683B6229E03B68DB68E5
:101E9C0004333B6224E03B68DB6808333B621FE0A1
:101EAC003B68DB680C333B621AE03B689B68002B99
:101EBC0002D104233B6213E03B689B68012B05D1E4
:101ECC0008233B627B68FA691A6109E008233B62CC
:101EDC007B68FA695A6103E000233B6200E000BFB3
:101EEC00BB69FF2B01D87B6801E07B6804337B6105
:101EFC00BB69FF2B02D87B6A9B0002E07B6A083B24
:101F0C009B003B617B691A680F213B6901FA03F363
:101F1C00DB431A40396A3B6901FA03F31A437B69C4
:101F2C001A603B685B6803F08053002B00F0B180B3
:101F3C004D4B9B694C4A43F0010393614A4B9B699F
:101F4C0003F00103BB60BB68484A7B6A9B08023301
:101F5C0052F82330FB607B6A03F003039B000F22D3
:101F6C0002FA03F3DB43FA681340FB607B68404AD8
:101F7C00934213D07B683F4A93420DD07B683E4A14
:101F8C00934207D07B683D4A934201D1032306E07C
:101F9C00042304E0022302E0012300E000237A6A18
:101FAC0002F0030292009340FA681343FB602F493E
:101FBC007B6A9B080233FA6841F823203B685B6814
:101FCC0003F48013002B06D02D4B9A682C49BB6967
:101FDC0013438B6006E02A4B9A68BB69DB432849A4
:101FEC0013408B603B685B6803F40013002B06D036
:101FFC00234BDA682249BB691343CB6006E0204BC4
:10200C00DA68BB69DB431E491340CB603B685B68F5
:10201C0003F40033002B06D0194B5A681849BB69DE
:10202C0013434B6006E0164B5A68BB69DB431449FB
:10203C0013404B603B685B6803F48033002B21D06A
:10204C000F4B1A680E49BB6913430B6021E000BFAC
:10205C00000032100000311000002210000021108E
:10206C00000012100000111000100240000001408E
:10207C0000080140000C0140001001400014014018
:10208C00000401400B4B1A68BB69DB430949134040
:10209C000B607B6A01337B623B681A687B6A22FAAD
:1020AC0003F3002B7FF48EAE00BF00BF2C37BD4670
:1020BC0080BC70470004014080B485B000AF7860EC
:1020CC000B467B807B689A687B881340002B02D080
:1020DC000123FB7301E00023FB73FB7B18461437D1
:1020EC00BD4680BC704780B483B000AF78600B46AF
:1020FC007B8013467B707B78002B03D07A887B68BF
:10210C001A6103E07B881A047B681A6100BF0C37E4
:10211C00BD4680BC704780B485B000AF78600B467C
:10212C007B807B68DB68FB607A88FB6813401A0451
:10213C00FB68D9437B880B401A437B681A6100BF4C
:10214C001437BD4680BC704780B586B000AF786050
:10215C007B68002B01D101236CE27B681B6803F0C8
:10216C000103002B00F08780924B5B6803F00C039B
:10217C00042B0CD08F4B5B6803F00C03082B12D193
:10218C008C4B5B6803F48033B3F5803F0BD1894BE8
:10219C001B6803F40033002B6CD07B685B68002B4E
:1021AC0068D1012346E27B685B68B3F5803F06D1BA
:1021BC00804B1B687F4A43F4803313602EE07B68AE
:1021CC005B68002B0CD17B4B1B687A4A23F4803361
:1021DC001360784B1B68774A23F4802313601DE04F
:1021EC007B685B68B3F5A02F0CD1724B1B68714AEE
:1021FC0043F4802313606F4B1B686E4A43F48033A7
:10220C0013600BE06B4B1B686A4A23F4803313603A
:10221C00684B1B68674A23F4802313607B685B68F8
:10222C00002B13D0FFF7ACFC386108E0FFF7A8FCDB
:10223C0002463B69D31A642B01D90323FAE15D4BA7
:10224C001B6803F40033002BF0D014E0FFF798FC6C
:10225C00386108E0FFF794FC02463B69D31A642B03
:10226C0001D90323E6E1534B1B6803F40033002B25
:10227C00F0D100E000BF7B681B6803F00203002B69
:10228C0063D04C4B5B6803F00C03002B0BD0494B19
:10229C005B6803F00C03082B1CD1464B5B6803F402
:1022AC008033002B16D1434B1B6803F00203002B29
:1022BC0005D07B681B69012B01D00123BAE13D4B92
:1022CC001B6823F0F8027B685B69DB003949134318
:1022DC000B603AE07B681B69002B20D0364B012247
:1022EC001A60FFF74DFC386108E0FFF749FC024625
:1022FC003B69D31A022B01D903239BE12D4B1B689D
:10230C0003F00203002BF0D02A4B1B6823F0F802D9
:10231C007B685B69DB00274913430B6015E0264B98
:10232C0000221A60FFF72CFC386108E0FFF728FC4C
:10233C0002463B69D31A022B01D903237AE11D4BC8
:10234C001B6803F00203002BF0D17B681B6803F0C1
:10235C000803002B3AD07B689B69002B19D0174BD4
:10236C0001221A60FFF70CFC386108E0FFF708FC4B
:10237C0002463B69D31A022B01D903235AE10D4BB8
:10238C005B6A03F00203002BF0D0012000F0CCFAC2
:10239C001CE00A4B00221A60FFF7F2FB38610FE0D9
:1023AC00FFF7EEFB02463B69D31A022B08D9032335
:1023BC0040E100BF00100240000042428004424253
:1023CC009E4B5B6A03F00203002BE9D17B681B6810
:1023DC0003F00403002B00F0A6800023FB75974B41
:1023EC00DB6903F08053002B0DD1944BDB69934ACE
:1023FC0043F08053D361914BDB6903F08053BB6096
:10240C00BB680123FB758E4B1B6803F48073002B98
:10241C0018D18B4B1B688A4A43F480731360FFF707
:10242C00AFFB386108E0FFF7ABFB02463B69D31A00
:10243C00642B01D90323FDE0814B1B6803F48073EB
:10244C00002BF0D07B68DB68012B06D17B4B1B6A21
:10245C007A4A43F0010313622DE07B68DB68002BA2
:10246C000CD1764B1B6A754A23F001031362734B34
:10247C001B6A724A23F0040313621CE07B68DB685E
:10248C00052B0CD16D4B1B6A6C4A43F00403136291
:10249C006A4B1B6A694A43F0010313620BE0674BFA
:1024AC001B6A664A23F001031362644B1B6A634A7E
:1024BC0023F0040313627B68DB68002B15D0FFF755
:1024CC005FFB38610AE0FFF75BFB02463B69D31AFE
:1024DC0041F28832934201D90323ABE0574B1B6A7C
:1024EC0003F00203002BEED014E0FFF749FB386138
:1024FC000AE0FFF745FB02463B69D31A41F28832EA
:10250C00934201D9032395E04C4B1B6A03F0020361
:10251C00002BEED1FB7D012B05D1484BDB69474AE3
:10252C0023F08053D3617B68DB69002B00F0818042
:10253C00424B5B6803F00C03082B61D07B68DB69B2
:10254C00022B46D13F4B00221A60FFF719FB386172
:10255C0008E0FFF715FB02463B69D31A022B01D9A1
:10256C00032367E0354B1B6803F00073002BF0D19D
:10257C007B681B6AB3F5803F08D1304B5B6823F452
:10258C0000327B689B682D4913434B602B4B5B6877
:10259C0023F474127B68196A7B685B6A0B432749C6
:1025AC0013434B60274B01221A60FFF7E9FA38619D
:1025BC0008E0FFF7E5FA02463B69D31A022B01D972
:1025CC00032337E01D4B1B6803F00073002BF0D086
:1025DC002FE01C4B00221A60FFF7D2FA386108E09A
:1025EC00FFF7CEFA02463B69D31A022B01D903231B
:1025FC0020E0124B1B6803F00073002BF0D118E0A5
:10260C007B68DB69012B01D1012313E00B4B5B6869
:10261C00FB60FB6803F480327B681B6A9A4206D12C
:10262C00FB6803F470127B685B6A9A4201D0012349
:10263C0000E0002318461837BD4680BD001002404C
:10264C00007000406000424280B584B000AF7860FA
:10265C0039607B68002B01D10123D0E06A4B1B68E9
:10266C0003F007033A689A4210D9674B1B6823F0B2
:10267C00070265493B6813430B60634B1B6803F00F
:10268C0007033A689A4201D00123B8E07B681B68C3
:10269C0003F00203002B20D07B681B6803F00403BB
:1026AC00002B05D0594B5B68584A43F4E0635360E8
:1026BC007B681B6803F00803002B05D0534B5B6849
:1026CC00524A43F460535360504B5B6823F0F00262
:1026DC007B689B684D4913434B607B681B6803F018
:1026EC000103002B40D07B685B68012B07D1474B63
:1026FC001B6803F40033002B15D101237FE07B68AA
:10270C005B68022B07D1414B1B6803F00073002B55
:10271C0009D1012373E03D4B1B6803F00203002B2E
:10272C0001D101236BE0394B5B6823F003027B681A
:10273C005B68364913434B60FFF722FAF8600AE0F6
:10274C00FFF71EFA0246FB68D31A41F28832934215
:10275C0001D9032353E02D4B5B6803F00C027B681B
:10276C005B689B009A42EBD1274B1B6803F0070375
:10277C003A689A4210D2244B1B6823F00702224974
:10278C003B6813430B60204B1B6803F007033A684C
:10279C009A4201D0012332E07B681B6803F00403EA
:1027AC00002B08D0194B5B6823F4E0627B68DB6874
:1027BC00164913434B607B681B6803F00803002B1E
:1027CC0009D0124B5B6823F460527B681B69DB00F9
:1027DC000E4913434B6000F021F802460B4B5B682B
:1027EC001B0903F00F030A49CB5C22FA03F3094AD5
:1027FC001360094B1B681846FFF780F90023184635
:10280C001037BD4680BD00BF0020024000100240C2
:10281C001C450008280000202C00002080B487B044
:10282C0000AF0023FB600023BB6000237B6100230F
:10283C007B6000233B611E4B5B68FB60FB6803F015
:10284C000C03042B02D0082B03D027E0194B3B615F
:10285C0027E0FB689B0C03F00F03174AD35C7B60EB
:10286C00FB6803F48033002B10D0114B5B685B0CBE
:10287C0003F00103114AD35CBB607B680D4A02FB79
:10288C0003F2BB68B2FBF3F37B6104E07B680C4A98
:10289C0002FB03F37B617B693B6102E0054B3B610F
:1028AC0000BF3B6918461C37BD4680BC704700BF53
:1028BC000010024000127A0034450008444500081C
:1028CC0000093D0080B400AF024B1B681846BD46A2
:1028DC0080BC70472800002080B500AFFFF7F2FFE6
:1028EC000246054B5B681B0A03F007030349CB5CEC
:1028FC0022FA03F3184680BD001002402C45000854
:10290C0080B500AFFFF7DEFF0246054B5B68DB0AC4
:10291C0003F007030349CB5C22FA03F3184680BD8E
:10292C00001002402C45000880B485B000AF7860E0
:10293C000A4B1B680A4AA2FB03235B0A7A6802FB58
:10294C0003F3FB6000BFFB685A1EFA60002BF9D141
:10295C0000BF00BF1437BD4680BC70472800002064
:10296C00D34D621080B582B000AF78607B68002BCD
:10297C0001D1012341E07B6893F83D30DBB2002BA1
:10298C0006D17B68002283F83C207868FEF76EFE47
:10299C007B68022283F83D207B681A687B680433CD
:1029AC001946104600F030FC7B68012283F8462063
:1029BC007B68012283F83E207B68012283F83F204C
:1029CC007B68012283F840207B68012283F8412038
:1029DC007B68012283F842207B68012283F8432024
:1029EC007B68012283F844207B68012283F8452010
:1029FC007B68012283F83D20002318460837BD462A
:102A0C0080BD000080B485B000AF78607B6893F81F
:102A1C003D30DBB2012B01D001233AE07B6802226E
:102A2C0083F83D207B681B68DA687B681B6842F082
:102A3C000102DA607B681B68184A93420ED07B68EF
:102A4C001B68B3F1804F09D07B681B68144A934212
:102A5C0004D07B681B68134A934211D17B681B68B6
:102A6C009B6803F00703FB60FB68062B10D07B68A8
:102A7C001B681A687B681B6842F001021A6007E049
:102A8C007B681B681A687B681B6842F001021A603D
:102A9C00002318461437BD4680BC7047002C0140FB
:102AAC00000400400008004080B582B000AF7860A0
:102ABC007B68002B01D1012341E07B6893F83D300A
:102ACC00DBB2002B06D17B68002283F83C207868AF
:102ADC0000F039F87B68022283F83D207B681A6885
:102AEC007B6804331946104600F08EFB7B6801228C
:102AFC0083F846207B68012283F83E207B68012204
:102B0C0083F83F207B68012283F840207B680122F8
:102B1C0083F841207B68012283F842207B680122E4
:102B2C0083F843207B68012283F844207B680122D0
:102B3C0083F845207B68012283F83D20002318464A
:102B4C000837BD4680BD80B483B000AF786000BF4D
:102B5C000C37BD4680BC704780B584B000AF786040
:102B6C0039603B68002B09D17B6893F83E30DBB2AF
:102B7C00012B14BF01230023DBB222E03B68042BA2
:102B8C0009D17B6893F83F30DBB2012B14BF0123D2
:102B9C000023DBB215E03B68082B09D17B6893F866
:102BAC004030DBB2012B14BF01230023DBB208E061
:102BBC007B6893F84130DBB2012B14BF0123002357
:102BCC00DBB2002B01D001235EE03B68002B04D16B
:102BDC007B68022283F83E2013E03B68042B04D16F
:102BEC007B68022283F83F200BE03B68082B04D162
:102BFC007B68022283F8402003E07B68022283F882
:102C0C0041207B681B6801223968184600F07CFD66
:102C1C007B681B681E4A934207D17B681B685A6C01
:102C2C007B681B6842F400425A647B681B68184A34
:102C3C0093420ED07B681B68B3F1804F09D07B6840
:102C4C001B68144A934204D07B681B68124A934257
:102C5C0011D17B681B689B6803F00703FB60FB6862
:102C6C00062B10D07B681B681A687B681B6842F0C7
:102C7C0001021A6007E07B681B681A687B681B6896
:102C8C0042F001021A60002318461037BD4680BD81
:102C9C00002C0140000400400008004080B582B0C8
:102CAC0000AF78607B681B681B6903F00203022B82
:102CBC0022D17B681B68DB6803F00203022B1BD15B
:102CCC007B681B686FF002021A617B6801221A771D
:102CDC007B681B689B6903F00303002B03D07868A7
:102CEC0000F076FA05E0786800F069FA786800F090
:102CFC0078FA7B6800221A777B681B681B6903F0E3
:102D0C000403042B22D17B681B68DB6803F00403EB
:102D1C00042B1BD17B681B686FF004021A617B6863
:102D2C0002221A777B681B689B6903F44073002BA3
:102D3C0003D0786800F04CFA05E0786800F03FFAB0
:102D4C00786800F04EFA7B6800221A777B681B6863
:102D5C001B6903F00803082B22D17B681B68DB6816
:102D6C0003F00803082B1BD17B681B686FF008026B
:102D7C001A617B6804221A777B681B68DB6903F095
:102D8C000303002B03D0786800F022FA05E0786882
:102D9C0000F015FA786800F024FA7B6800221A77A4
:102DAC007B681B681B6903F01003102B22D17B6816
:102DBC001B68DB6803F01003102B1BD17B681B68AE
:102DCC006FF010021A617B6808221A777B681B6807
:102DDC00DB6903F44073002B03D0786800F0F8F93A
:102DEC0005E0786800F0EBF9786800F0FAF97B6898
:102DFC0000221A777B681B681B6903F00103012B07
:102E0C000ED17B681B68DB6803F00103012B07D133
:102E1C007B681B686FF001021A617868FEF792F903
:102E2C007B681B681B6903F08003802B0ED17B68C9
:102E3C001B68DB6803F08003802B07D17B681B6861
:102E4C006FF080021A61786800F0E9FC7B681B68FF
:102E5C001B6903F04003402B0ED17B681B68DB68B9
:102E6C0003F04003402B07D17B681B686FF04002D6
:102E7C001A61786800F0BEF97B681B681B6903F067
:102E8C002003202B0ED17B681B68DB6803F020032A
:102E9C00202B07D17B681B686FF020021A617868C1
:102EAC0000F0B4FC00BF0837BD4680BD80B586B0CD
:102EBC0000AFF860B9607A600023FB75FB6893F88B
:102ECC003C30012B01D10223AEE0FB68012283F8D8
:102EDC003C207B680C2B00F29F8001A252F823F05F
:102EEC00212F000825300008253000082530000867
:102EFC00612F000825300008253000082530000817
:102F0C00A32F0008253000082530000825300008C4
:102F1C00E32F0008FB681B68B968184600F0D6F967
:102F2C00FB681B689A69FB681B6842F008029A618F
:102F3C00FB681B689A69FB681B6822F004029A61A3
:102F4C00FB681B689969BB681A69FB681B680A43B4
:102F5C009A6164E0FB681B68B968184600F01CFABB
:102F6C00FB681B689A69FB681B6842F400629A61F3
:102F7C00FB681B689A69FB681B6822F480629A6183
:102F8C00FB681B689969BB681B691A02FB681B68A4
:102F9C000A439A6143E0FB681B68B968184600F065
:102FAC0065FAFB681B68DA69FB681B6842F008026B
:102FBC00DA61FB681B68DA69FB681B6822F00402A3
:102FCC00DA61FB681B68D969BB681A69FB681B6806
:102FDC000A43DA6123E0FB681B68B968184600F005
:102FEC00AFFAFB681B68DA69FB681B6842F4006285
:102FFC00DA61FB681B68DA69FB681B6822F4806283
:10300C00DA61FB681B68D969BB681B691A02FB682B
:10301C001B680A43DA6102E00123FB7500BFFB6801
:10302C00002283F83C20FB7D18461837BD4680BD36
:10303C0080B584B000AF786039600023FB737B6887
:10304C0093F83C30012B01D10223B4E07B680122C0
:10305C0083F83C207B68022283F83D207B681B6848
:10306C009B68BB60BB6823F07703BB60BB6823F431
:10307C007F43BB607B681B68BA689A603B681B68BF
:10308C00B3F5005F3ED0B3F5005F00F28780B3F577
:10309C00805F00F08680B3F5805F7FD8702B1AD0EC
:1030AC00702B7BD8602B50D0602B77D8502B3CD01A
:1030BC00502B73D8402B58D0402B6FD8302B64D06A
:1030CC00302B6BD8202B60D0202B67D8002B5CD0FA
:1030DC00102B5AD062E07B6818683B6899683B6893
:1030EC005A683B68DB6800F0F0FA7B681B689B68E9
:1030FC00BB60BB6843F07703BB607B681B68BA6836
:10310C009A604FE07B6818683B6899683B685A681E
:10311C003B68DB6800F0D9FA7B681B689A687B68AF
:10312C001B6842F480429A603CE07B6818683B68FC
:10313C0059683B68DB681A4600F050FA7B681B68DC
:10314C005021184600F0A7FA2CE07B6818683B6801
:10315C0059683B68DB681A4600F06EFA7B681B689E
:10316C006021184600F097FA1CE07B6818683B68F1
:10317C0059683B68DB681A4600F030FA7B681B68BC
:10318C004021184600F087FA0CE07B681A683B680F
:10319C001B681946104600F07EFA03E00123FB730E
:1031AC0000E000BF7B68012283F83D207B68002291
:1031BC0083F83C20FB7B18461037BD4680BD80B49D
:1031CC0083B000AF786000BF0C37BD4680BC704741
:1031DC0080B483B000AF786000BF0C37BD4680BCB4
:1031EC00704780B483B000AF786000BF0C37BD4629
:1031FC0080BC704780B483B000AF786000BF0C37E0
:10320C00BD4680BC7047000080B485B000AF7860CC
:10321C0039607B681B68FB607B68294A93420BD042
:10322C007B68B3F1804F07D07B68264A934203D06A
:10323C007B68254A934208D1FB6823F07003FB603E
:10324C003B685B68FA681343FB607B681C4A9342DB
:10325C000BD07B68B3F1804F07D07B68194A93423F
:10326C0003D07B68184A934208D1FB6823F440735F
:10327C00FB603B68DB68FA681343FB60FB6823F078
:10328C0080023B685B691343FB607B68FA681A60D9
:10329C003B689A687B68DA623B681A687B689A625A
:1032AC007B68074A934203D13B681A697B681A63AF
:1032BC007B6801225A6100BF1437BD4680BC704741
:1032CC00002C0140000400400008004080B487B08E
:1032DC0000AF786039607B681B6A7B617B681B6A16
:1032EC0023F001027B681A627B685B683B617B6838
:1032FC009B69FB60FB6823F07003FB60FB6823F0A9
:10330C000303FB603B681B68FA681343FB607B6933
:10331C0023F002037B613B689B687A6913437B61F2
:10332C007B681C4A93420CD17B6923F008037B61B8
:10333C003B68DB687A6913437B617B6923F0040388
:10334C007B617B68134A934211D13B6923F48073F0
:10335C003B613B6923F400733B613B685B693A69F1
:10336C0013433B613B689B693A6913433B617B6840
:10337C003A695A607B68FA689A613B685A687B685C
:10338C005A637B687A691A6200BF1C37BD4680BCE1
:10339C00704700BF002C014080B487B000AF78604C
:1033AC0039607B681B6A7B617B681B6A23F01002A7
:1033BC007B681A627B685B683B617B689B69FB601E
:1033CC00FB6823F4E043FB60FB6823F44073FB6071
:1033DC003B681B681B02FA681343FB607B6923F094
:1033EC0020037B613B689B681B017A6913437B61FB
:1033FC007B681D4A93420DD17B6923F080037B616E
:10340C003B68DB681B017A6913437B617B6923F0A2
:10341C0040037B617B68144A934213D13B6923F4CC
:10342C0080633B613B6923F400633B613B685B69F0
:10343C009B003A6913433B613B689B699B003A696B
:10344C0013433B617B683A695A607B68FA689A61FE
:10345C003B685A687B689A637B687A691A6200BF1A
:10346C001C37BD4680BC7047002C014080B487B02F
:10347C0000AF786039607B681B6A7B617B681B6A74
:10348C0023F480727B681A627B685B683B617B68A3
:10349C00DB69FB60FB6823F07003FB60FB6823F0C7
:1034AC000303FB603B681B68FA681343FB607B6992
:1034BC0023F400737B613B689B681B027A6913439E
:1034CC007B617B681D4A93420DD17B6923F40063B9
:1034DC007B613B68DB681B027A6913437B617B6908
:1034EC0023F480637B617B68144A934213D13B695C
:1034FC0023F480533B613B6923F400533B613B68ED
:10350C005B691B013A6913433B613B689B691B0177
:10351C003A6913433B617B683A695A607B68FA6885
:10352C00DA613B685A687B68DA637B687A691A628D
:10353C0000BF1C37BD4680BC704700BF002C01404B
:10354C0080B487B000AF786039607B681B6A3B61E0
:10355C007B681B6A23F480527B681A627B685B6809
:10356C007B617B68DB69FB60FB6823F4E043FB60F9
:10357C00FB6823F44073FB603B681B681B02FA6812
:10358C001343FB603B6923F400533B613B689B682E
:10359C001B033A6913433B617B680F4A934209D181
:1035AC007B6923F480437B613B685B699B017A698F
:1035BC0013437B617B687A695A607B68FA68DA61CD
:1035CC003B685A687B681A647B683A691A6200BF68
:1035DC001C37BD4680BC7047002C014080B487B0BE
:1035EC0000AFF860B9607A60FB681B6A7B61FB68AE
:1035FC001B6A23F00102FB681A62FB689B693B6142
:10360C003B6923F0F0033B617B681B013A69134370
:10361C003B617B6923F00A037B617A69BB681343C6
:10362C007B61FB683A699A61FB687A691A6200BF30
:10363C001C37BD4680BC704780B487B000AFF860C3
:10364C00B9607A60FB681B6A7B61FB681B6A23F0BC
:10365C001002FB681A62FB689B693B613B6923F4AF
:10366C0070433B617B681B033A6913433B617B6985
:10367C0023F0A0037B61BB681B017A6913437B6158
:10368C00FB683A699A61FB687A691A6200BF1C3759
:10369C00BD4680BC704780B485B000AF786039609F
:1036AC007B689B68FB60FB6823F07003FB603A68E7
:1036BC00FB68134343F00703FB607B68FA689A606E
:1036CC0000BF1437BD4680BC704780B487B000AFD4
:1036DC00F860B9607A603B60FB689B687B617B69D2
:1036EC0023F47F437B613B681A027B681A43BB68F7
:1036FC0013437A6913437B61FB687A699A6000BF54
:10370C001C37BD4680BC704780B487B000AFF860F2
:10371C00B9607A60BB6803F01F03012202FA03F35D
:10372C007B61FB681A6A7B69DB431A40FB681A628F
:10373C00FB681A6ABB6803F01F03796801FA03F38C
:10374C001A43FB681A6200BF1C37BD4680BC704729
:10375C0080B485B000AF786039607B6893F83C30FA
:10376C00012B01D1022346E07B68012283F83C2027
:10377C007B68022283F83D207B681B685B68FB60DA
:10378C007B681B689B68BB60FB6823F07003FB6065
:10379C003B681B68FA681343FB607B681B68FA681C
:1037AC005A607B681B68164A93420ED07B681B6874
:1037BC00B3F1804F09D07B681B68124A934204D046
:1037CC007B681B68104A93420CD1BB6823F08003C2
:1037DC00BB603B685B68BA681343BB607B681B6863
:1037EC00BA689A607B68012283F83D207B680022CE
:1037FC0083F83C20002318461437BD4680BC704724
:10380C00002C0140000400400008004080B483B04C
:10381C0000AF786000BF0C37BD4680BC704780B4E9
:10382C0083B000AF786000BF0C37BD4680BC7047DA
:10383C0080B582B000AF78607B68002B01D101238A
:10384C0042E07B6893F84130DBB2002B06D17B68F9
:10385C00002283F840207868FDF77AFF7B682422E9
:10386C0083F841207B681B68DA687B681B6822F44C
:10387C000052DA60786800F01DF97B681B681A69E1
:10388C007B681B6822F490421A617B681B685A693A
:10389C007B681B6822F02A025A617B681B68DA6815
:1038AC007B681B6842F40052DA607B6800225A6421
:1038BC007B68202283F841207B68202283F84220F9
:1038CC007B6800225A63002318460837BD4680BD2A
:1038DC0080B58AB002AFF860B9603B601346FB80DC
:1038EC0000237B61FB6893F84130DBB2202B6DD158
:1038FC00BB68002B02D0FB88002B01D1012366E0B2
:10390C00FB6800225A64FB68212283F84120FEF7F1
:10391C0037F97861FB68FA889A84FB68FA88DA844C
:10392C00FB689B68B3F5805F08D1FB681B69002BB3
:10393C0004D10023FB61BB68BB6103E0BB68FB6186
:10394C000023BB612AE03B6800937B690022802145
:10395C00F86800F040F80346002B01D0032336E052
:10396C00FB69002B0BD1BB691B881A46FB681B68D3
:10397C00C2F308025A60BB690233BB6107E0FB6902
:10398C001A78FB681B685A60FB690133FB61FB68A2
:10399C00DB8C9BB2013B9AB2FB68DA84FB68DB8C54
:1039AC009BB2002BCFD13B6800937B690022402156
:1039BC00F86800F010F80346002B01D0032306E052
:1039CC00FB68202283F84120002300E002231846E4
:1039DC002037BD4680BD80B590B000AFF860B960AF
:1039EC003B601346FB7150E0BB6CB3F1FF3F4CD016
:1039FC00BB6C002B07D0FEF7C3F802463B68D31A0A
:103A0C00BA6C9A4241D2FB681B680C33BB62BB6A2E
:103A1C0053E8003F7B627B6A23F4D073FB63FB6843
:103A2C001B680C33FA6B7A633B63396B7A6B41E836
:103A3C000023FB62FB6A002BE5D1FB681B68143387
:103A4C007B617B6953E8003F3B613B6923F00103D9
:103A5C00BB63FB681B681433BA6B3A62FB61F96990
:103A6C003A6A41E80023BB61BB69002BE5D1FB68D6
:103A7C00202283F84120FB68202283F84220FB6837
:103A8C00002283F8402003230FE0FB681B681A68B0
:103A9C00BB681340BA689A420CBF01230023DBB207
:103AAC001A46FB799A429FD0002318464037BD46F0
:103ABC0080BD000080B584B000AF78607B681B6867
:103ACC001B6923F440517B68DA687B681B680A43E6
:103ADC001A617B689A687B681B691A437B685B690F
:103AEC001343BB607B681B68DB6823F4B05323F083
:103AFC000C037A681268B9680B43D3607B681B6847
:103B0C005B6923F440717B689A697B681B680A4384
:103B1C005A617B681B682C4A934203D1FEF7F0FE76
:103B2C00F86002E0FEF7D8FEF860FA6813469B00D6
:103B3C0013449A001A447B685B689B00B2FBF3F356
:103B4C00224AA2FB03235B091901FA6813469B0066
:103B5C0013449A001A447B685B689B00B2FBF3F237
:103B6C001A4BA3FB02035B09642000FB03F3D31A7B
:103B7C001B013233154AA2FB03235B0903F0F0034C
:103B8C001944FA6813469B0013449A001A447B6844
:103B9C005B689B00B2FBF3F20C4BA3FB02035B09CB
:103BAC00642000FB03F3D31A1B013233074AA2FB38
:103BBC0003235B0903F00F027B681B680A449A60BD
:103BCC0000BF1037BD4680BD003801401F85EB514A
:103BDC00014B1868704700BF3400002070B50026F8
:103BEC000C4D0D4C641BA410A64209D100F06CFCCA
:103BFC0000260A4D0A4C641BA410A64205D170BDC8
:103C0C0055F8043B98470136EEE755F8043B9847C6
:103C1C000136F2E77C4500087C4500087C4500082D
:103C2C0080450008024B0146186800F05FB800BFE1
:103C3C0034000020024B0146186800F00BB800BF9E
:103C4C003400002003460244934200D1704703F82D
:103C5C00011BF9E738B50546002943D051F8043C5F
:103C6C000C1F002BB8BFE41800F0CAF81E4A1368EA
:103C7C00104633B9636014602846BDE8384000F044
:103C8C00C5B8A3420AD921686218934201BF1A68C9
:103C9C005B685218226063600460EDE71A465B684B
:103CAC000BB1A342FAD911685018A0420BD120686D
:103CBC000144501883421160DED118685B680144DE
:103CCC0011605360D8E702D90C232B60D4E720682D
:103CDC0021188B4201BF19685B6809182160636069
:103CEC005460C9E738BD00BF68010020F8B5CD1C91
:103CFC0025F0030508350C2D38BF0C25002D064684
:103D0C0001DBA94203D90C2333600020F8BD00F07D
:103D1C0077F821490A6814469CB9204F3B6823B9AF
:103D2C002146304600F03CF838602946304600F019
:103D3C0037F8431C23D10C233046336000F066F86F
:103D4C00E3E723685B1B17D40B2B03D923601C44BC
:103D5C00256004E06368A2420CBF0B6053603046E0
:103D6C0000F054F804F10B00231D20F00700C21AD8
:103D7C00CCD01B1AA350C9E722466468CCE7C41CFC
:103D8C0024F00304A042E3D0211A304600F008F8D6
:103D9C000130DDD1CFE700BF680100206C010020AD
:103DAC0038B50023054D044608462B60FDF756FD3B
:103DBC00431C02D12B6803B1236038BDA40500203D
:103DCC000EB46FF0004100B59CB01DAB0290069094
:103DDC00079104910848094953F8042B0591006890
:103DEC0002A9019300F074F80022029B1A701CB017
:103DFC005DF804EB03B07047340000200802FFFFAD
:103E0C00014800F0FBBA00BFAC050020014800F0EF
:103E1C00F6BA00BFAC0500202DE9F0478E6882464B
:103E2C009E420C4690461F4638D88A8912F4906FF1
:103E3C0032D0256809690133A5EB010965694B444A
:103E4C0005EB450505EBD5756D109D4238BF1D463C
:103E5C00530531D52946FFF749FF064650B90C23C7
:103E6C004FF0FF30CAF80030A38943F04003A38120
:103E7C00BDE8F0874A46216900F0D0FAA38923F403
:103E8C00906343F08003A38126614E4426603E4636
:103E9C006561A5EB0905A560BE4200D93E463246D8
:103EAC004146206800F0C8FAA36822689B1B324484
:103EBC000020A3602260DBE72A4600F0D7FA064612
:103ECC000028E1D150462169FFF7C4FEC7E7000086
:103EDC002DE9F04F98468B8907461B060D46144674
:103EEC009DB00ED50B6963B94021FFF7FFFE28602A
:103EFC00286120B90C233B604FF0FF30D1E0402308
:103F0C006B610023099320238DF8293030234FF067
:103F1C000109CDF80C80DFF8A4818DF82A302346F6
:103F2C009A4613F8012B0AB1252AF9D1BAEB040BE6
:103F3C000BD05B46224629463846FFF76DFF013011
:103F4C0000F0AA80099A5A4409929AF80030002B82
:103F5C0000F0A28000234FF0FF32CDE905230AF1D7
:103F6C00010A049307938DF853301A935446052293
:103F7C0014F8011B514800F043FA049AD8B9D00642
:103F8C0044BF20238DF85330110744BF2B238DF8E9
:103F9C0053309AF800302A2B15D0544600204FF09D
:103FAC000A0C079A214611F8013B303B092B4ED9DC
:103FBC00B0B1079214E0A0EB080309FA03F3134322
:103FCC00A2460493D2E7039B191D1B680391002B97
:103FDC00BBBF5B4242F0020207930793B8BF049247
:103FEC0023782E2B0CD163782A2B35D1039B0234EA
:103FFC001A1D1B680392002BB8BF4FF0FF330593BB
:10400C00DFF8C8A003225046217800F0F9F940B13E
:10401C004023A0EB0A0003FA00F0049B0134034395
:10402C00049314F8011B062225488DF8281000F083
:10403C00E7F9002838D0234B1BBB039B073323F035
:10404C00070308330393099B3344099367E70C4632
:10405C0001200CFB0232A5E700234FF00A0C194695
:10406C0001340593204610F8012B303A092A03D964
:10407C00002BC5D00591C3E7044601230CFB01219D
:10408C00F0E703AB00932A4638460F4B04A9AFF375
:10409C000080421C0646D6D1AB895B063FF52CAF9F
:1040AC0009981DB0BDE8F08F03AB00932A46384643
:1040BC00054B04A900F07CF8EBE700BF464500086F
:1040CC005045000800000000253E00084C45000843
:1040DC002DE9F047164699468A680B6907469342C4
:1040EC00B8BF1346336091F843200C46DDF82080AE
:1040FC000AB1013333602368990642BF3368023337
:10410C003360256815F0060506D104F1190AE36839
:10411C0032689B1AAB4228DC94F84320131E2268A9
:10412C0018BF012392062DD44946384604F14302A8
:10413C00C047013020D02368E56803F00603042B48
:10414C0018BF002532684FF00006A36808BFAD1AEF
:10415C00226908BF25EAE5759342C4BF9B1AED1886
:10416C001A34B5421AD1002008E0012352464946C0
:10417C003846C047013003D14FF0FF30BDE8F0871F
:10418C000135C4E73020E11881F843005A1C94F83B
:10419C0045102244023382F84310C5E7012322461E
:1041AC0049463846C0470130E6D00136D9E7000011
:1041BC002DE9FF470C46277E9146782F80469A467C
:1041CC000C9904F1430207D8622F0AD8002F00F093
:1041DC00D980582F00F0A48004F1420684F8427074
:1041EC003AE0A7F16303152BF6D801A050F823F0A1
:1041FC005542000869420008E5410008E541000805
:10420C00E5410008E541000869420008E541000865
:10421C00E5410008E5410008E54100087743000846
:10422C009942000859430008E5410008E54100089F
:10423C0099430008E541000899420008E54100084F
:10424C00E5410008614300080B6804F142061A1DA1
:10425C001B680A6084F842300123A4E025680868D2
:10426C002E0600F104030AD505680B60002D03DA55
:10427C002D236D4284F843300A235E4819E015F073
:10428C00400F05680B6018BF2DB2EFE70B6825686F
:10429C00181D0860280601D51D6802E06906FBD5CB
:1042AC001D886F2F0CBF08230A235248002184F865
:1042BC0043106668002EA8BF2168A660A4BF21F039
:1042CC00040121600DB9002E4DD01646B5FBF3F15B
:1042DC0003FB1157C75D06F8017D2F46BB420D4607
:1042EC00F4D9082B0BD12368DF0708D52369616843
:1042FC009942DEBF302306F8013C06F1FF36921BD3
:10430C0022614B4621464046CDF800A003AAFFF798
:10431C00DFFE01304CD14FF0FF3004B0BDE8F08728
:10432C00344884F845700E68236856F8045B1F0601
:10433C000E6014D5D90744BF43F0200323601DB988
:10434C00236823F0200323601023AFE7236843F096
:10435C00200323607823284884F84530E3E75E0681
:10436C0048BFADB2E6E71646BBE70B6826681D1DD5
:10437C0060690D6035061B6801D5186002E0710696
:10438C00FBD51880002316462361BAE70B681A1D6B
:10439C000A601E6800213046626800F031F808B1EE
:1043AC00801B606063682361002384F84330A8E7B6
:1043BC003246494640462369D0470130ABD023688A
:1043CC009B0713D4E068039B9842B8BF1846A4E738
:1043DC000123324649464046D04701309BD0013537
:1043EC00E36803995B1AAB42F2DCEBE7002504F1BE
:1043FC001906F5E7574500086845000870477047EF
:10440C00034610B5C9B202449342184601D10020AC
:10441C0003E0047801338C42F6D110BD0A4491427A
:10442C0000F1FF3300D1704710B511F8014B9142E8
:10443C0003F8014FF9D110BD884210B501EB02040D
:10444C0002D98442234607D8431EA14208D011F852
:10445C00012B03F8012FF8E7014602448A4200D1F0
:10446C0010BD13F8014D02F8014DF7E7F8B50746FA
:10447C0014460E4621B91146BDE8F840FFF736BC8C
:10448C0022B9FFF7E7FB25462846F8BD00F014F8E3
:10449C00A0420FD221463846FFF728FC05460028DB
:1044AC00F2D031462246FFF7B9FF31463846FFF7C6
:1044BC00D1FBE9E73546E7E751F8043C181F002B20
:1044CC00BCBF0B58C0187047F8B500BFF8BC08BC8F
:1044DC009E467047F8B500BFF8BC08BC9E467047B6
:1044EC002137534547313D25642009203753454733
:1044FC00323D256423200D0A00000000FA00000064
:10450C007D000000500000003C0000003C0000005A
:10451C000000000000000000010203040607080967
:10452C000000000001020304020304050607080949
:10453C000A0B0C0D0E0F10100102232D302B200036
:10454C00686C4C0065666745464700303132333441
:10455C0035363738394142434445460030313233E1
:10456C0034353637383961626364656600000000A3
:04457C003101000801
:044580000D01000821
:1045840005000000020000000300000000080140D4
:1045940000080140000C0140000801400200100026
:1045A400010001000A0000000024F40010000000D3
:1045B400010000003800002000000000000000009E
:1045C40000000000000000000000000000000000E7
:1045D40000000000000000000000000000000000D7
:1045E40000000000000000000000000000000000C7
:1045F40000000000000000000000000000000000B7
:1046040000000000000000000000000000000000A6
:0846140000000000000000009E
:0400000508001A9144
:00000001FF
